:1000000015C1000042C5000015C50000E8C400008D
:10001000BBC400008EC4000061C4000034C40000F2
:1000200007C4000034C1000032C1000030C100002C
:100030002EC100002CC100002AC1000028C1000010
:1000400026C1000033C6000022C1000020C100000C
:100050001EC100001CC100001AC100009FC30000A7
:1000600016C1000066C500003BC5000010C10000BD
:100070000EC100000CC100000AC1000008C1000050
:10008000E8C5000004C1000002C1000000C100007A
:10009000FEC00000FCC00000FAC0000022C7000043
:1000A000F6C00000F4C00000A7C50000F0C00000CA
:1000B000EEC00000ECC00000EAC0000070C5000007
:1000C000E6C00000E4C00000E2C00000E0C00000A4
:1000D000DEC00000DCC00000DAC00000D8C00000B4
:1000E000D6C00000C00AC30AB20AB60ABA0AFA0A9F
:1000F000C70ACB0AD10AD50AD90ADF0AE30AE70AF6
:10010000FA0AED0AF10AF50A000020002300260091
:1001100029002C002F00320000010000030106011D
:10012000090100002100240027002A002D003000D2
:10013000330001010000040107010A010000220050
:10014000250028002B002E003100340002010000A1
:10015000050108010B010505050507050808080844
:10016000020202020A0A080804040404010101014F
:10017000010101010303030303030303040707074A
:100180000C0C0C0C0C0C0C0C0202020206060606EF
:10019000060606060B0B0B0B0B0B0B0B01021020BC
:1001A00020080810204010204080020102010804AD
:1001B0000201010204081020408080402010080441
:1001C000020180040201804020100804020108049A
:1001D00002010102040810204080010204081020DE
:1001E000408000000A0B02090C0D0E0807030401F1
:1001F00000000000000000000000000000000000FF
:1002000000000000000000000000000000001211CB
:1002100010000000000000000000000000000000CE
:100220000000000000000000590F560F11241FBEEF
:10023000CFEFD1E2DEBFCDBF00E00CBF12E0A0E007
:10024000B2E0EAE1F9E200E00BBF02C007900D92D4
:10025000A439B107D9F725E0A4E9B2E001C01D92A5
:10026000A037B207E1F711E0C5E1D1E000E006C038
:1002700021970109802FFE010E944313C431D10749
:1002800080E00807A9F70E940A0C0C947C14B8CEF1
:100290000895CF92DF92EF92FF920F931F93CF9327
:1002A000DF936C017A018B01C0E0D0E0CE15DF0551
:1002B00089F0D8016D918D01D601ED91FC910190ED
:1002C000F081E02DC6011995892B11F47E0102C041
:1002D0002196ECCFC701DF91CF911F910F91FF9035
:1002E000EF90DF90CF900895FC01538D448D252F22
:1002F00030E0842F90E0821B930B541710F0CF96C0
:10030000089501970895FC01918D828D981761F0F1
:10031000828DDF01A80FB11D5D968C91928D9F5F3C
:100320009F73928F90E008958FEF9FEF0895FC01E7
:10033000918D828D981731F0828DE80FF11D858D9A
:1003400090E008958FEF9FEF0895FC01918D228D2D
:10035000892F90E0805C9F4F821B91098F739927B2
:1003600008958BE693E0F1DF21E0892B09F420E08A
:10037000822F0895FC01848DDF01A80FB11DA35ABF
:10038000BF4F2C91848D90E001968F739927848FB5
:10039000A689B7892C93A089B1898C9180648C93AC
:1003A000938D848D981306C00288F389E02D808197
:1003B0008F7D80830895EF92FF920F931F93CF93C9
:1003C000DF93EC0181E0888F9B8D8C8D981305C0A5
:1003D000E889F989808185FD23C0F62E0B8D10E018
:1003E0000F5F1F4F0F731127E02E8C8DE8120BC08B
:1003F0000FB607FCFACFE889F989808185FFF5CF30
:10040000CE01B8DFF2CF8B8DFE01E80FF11DE35A6C
:10041000FF4FF0820B8FEA89FB898081806207C0E1
:10042000EE89FF896083E889F9898081806480830F
:1004300081E090E0DF91CF911F910F91FF90EF90BD
:100440000895CF93DF93EC01888D8823C1F0EA896A
:10045000FB89808185FD05C0A889B9898C9186FDBD
:100460000EC00FB607FCF5CF808185FFF2CFA889BB
:10047000B9898C9185FFEDCFCE017CDFE8CFDF918C
:10048000CF91089580E090E0892B19F06ADF811107
:1004900025C080E090E0892B41F080E090E0892B3E
:1004A00021F00E94000081111CC080E090E0892BA7
:1004B00041F080E090E0892B21F00E940000811142
:1004C00013C080E090E0892BA1F080E090E0892BC0
:1004D00081F00E94000081110AC008950E9400006E
:1004E000D8CF0E940000E1CF0E940000EACF0C9418
:1004F000000008950895E09100038091FF02E8173D
:1005000030F4F0E0EC5DFC4F808190E008958FEFD7
:100510009FEF0895909100038091FF02981750F487
:10052000E92FF0E0EC5DFC4F208130E09F5F90937D
:10053000000302C02FEF3FEFC90108958091FF0231
:1005400090E020910003821B91090895089580E0B6
:1005500090E00895CF92DF92EF92FF920F931F9356
:10056000CF93DF936C018B017A01EC01CC56DD4F08
:10057000888187FF04C0FB011182108224C08CE0B7
:100580008C9D90018D9D300D11248881A901480F0B
:10059000511D87FD5A958091A40490E04817590792
:1005A00094F48881A901480F511D87FD5A95CA010D
:1005B000FA01EE0FFF1F8E0F9F1FFC01EC5EFB4F39
:1005C000808186FD19C088818F5F88838CE08C9D37
:1005D00090018D9D300D11248881A901480F511D76
:1005E00087FD5A958091A40490E048175907B4F408
:1005F00088818C303CF112C08881280F311D87FD25
:100600003A95F901EE0FFF1F2E0F3F1FF901EC5E27
:10061000FB4F808160E08F7384D7D5CFF801808154
:100620009181049680349C4918F480E49CE904C0CC
:10063000F801808191810496F701918380838FEF87
:10064000888344C0F801408151818881B901680FD5
:10065000711D87FD7A95CB01FB01EE0FFF1F8E0FF9
:100660009F1FFC01EC5EFB4F81819281840F951FDF
:10067000F701918380838881A901480F511D87FD6F
:100680005A95CA01FA01EE0FFF1F8E0F9F1FFC0142
:10069000EC5EFB4F808186FF19C08881280F311DD9
:1006A00087FD3A95F901EE0FFF1F2E0F3F1FF9014D
:1006B000EC5EFB4F808161E08F73DF91CF911F91E2
:1006C0000F91FF90EF90DF90CF902BC7DF91CF91EC
:1006D0001F910F91FF90EF90DF90CF9008950E94AF
:1006E0007814CF92DF92EF92FF920F931F93CF93E4
:1006F000DF937C01262F972F8A01809101038823A5
:1007000091F0C62FD72F6E01C40ED51ECC15DD0576
:1007100069F06991D701ED91FC910190F081E02D94
:10072000C7011995F3CF642F822F0CD5C801DF9133
:10073000CF911F910F91FF90EF90DF90CF90089590
:10074000CF93DF931F92CDB7DEB76983209101036A
:100750002223D1F020912303203240F021E030E029
:10076000FC013383228380E090E014C08091020377
:10077000E82FF0E0ED5FFC4F998190838F5F8093CD
:1007800002038093230304C061E0CE010196DAD412
:1007900081E090E00F90DF91CF9108951F920F922A
:1007A0000FB60F9211242F933F938F939F93AF9384
:1007B000BF938091F7029091F802A091F902B09155
:1007C000FA023091A30223E0230F2D3720F4019683
:1007D000A11DB11D05C026E8230F0296A11DB11D64
:1007E0002093A3028093F7029093F802A093F9025A
:1007F000B093FA028091FB029091FC02A091FD025D
:10080000B091FE020196A11DB11D8093FB02909351
:10081000FC02A093FD02B093FE02BF91AF919F91A5
:100820008F913F912F910F900FBE0F901F901895B1
:100830001F920F920FB60F9211240BB60F922F93A7
:100840003F934F935F936F937F938F939F93AF9358
:10085000BF93EF93FF93E0910E02F0910F02199571
:10086000FF91EF91BF91AF919F918F917F916F9188
:100870005F914F913F912F910F900BBE0F900FBE44
:100880000F901F9018951F920F920FB60F92112480
:100890000BB60F922F933F934F935F936F937F937A
:1008A0008F939F93AF93BF93EF93FF93E0910C02CD
:1008B000F0910D021995FF91EF91BF91AF919F912A
:1008C0008F917F916F915F914F913F912F910F90F9
:1008D0000BBE0F900FBE0F901F9018951F920F9296
:1008E0000FB60F9211240BB60F922F933F934F9395
:1008F0005F936F937F938F939F93AF93BF93EF9388
:10090000FF93E0910202F09103021995FF91EF919C
:10091000BF91AF919F918F917F916F915F914F9117
:100920003F912F910F900BBE0F900FBE0F901F9015
:1009300018951F920F920FB60F9211240BB60F92BB
:100940002F933F934F935F936F937F938F939F93D7
:10095000AF93BF93EF93FF93E0910002F0910102F8
:100960001995FF91EF91BF91AF919F918F917F91D9
:100970006F915F914F913F912F910F900BBE0F9010
:100980000FBE0F901F9018951F920F920FB60F92E7
:1009900011240BB60F922F933F934F935F936F9356
:1009A0007F938F939F93AF93BF93EF93FF93E091C8
:1009B0000A02F0910B021995FF91EF91BF91AF914F
:1009C0009F918F917F916F915F914F913F912F9167
:1009D0000F900BBE0F900FBE0F901F9018951F9297
:1009E0000F920FB60F9211240BB60F922F933F93D5
:1009F0004F935F936F937F938F939F93AF93BF9327
:100A0000EF93FF93E0910802F09109021995FF918D
:100A1000EF91BF91AF919F918F917F916F915F9176
:100A20004F913F912F910F900BBE0F900FBE0F90E3
:100A30001F9018951F920F920FB60F9211240BB6AC
:100A40000F922F933F934F935F936F937F938F9367
:100A50009F93AF93BF93EF93FF93E0910602F091C2
:100A600007021995FF91EF91BF91AF919F918F91DF
:100A70007F916F915F914F913F912F910F900BBE9E
:100A80000F900FBE0F901F9018951F920F920FB6E8
:100A90000F9211240BB60F922F933F934F935F93B6
:100AA0006F937F938F939F93AF93BF93EF93FF9336
:100AB000E0910402F09105021995FF91EF91BF9129
:100AC000AF919F918F917F916F915F914F913F91E6
:100AD0002F910F900BBE0F900FBE0F901F90189587
:100AE0001F920F920FB60F9211240BB60F922F93F5
:100AF0003F934F935F936F937F938F939F93AF93A6
:100B0000BF93EF93FF938BE693E034DCFF91EF917B
:100B1000BF91AF919F918F917F916F915F914F9115
:100B20003F912F910F900BBE0F900FBE0F901F9013
:100B300018951F920F920FB60F9211240BB60F92B9
:100B40002F938F939F93EF93FF93E0917B03F0910B
:100B50007C038081E0918103F091820382FD12C0C9
:100B60009081809184038F5F8F732091850382171A
:100B700051F0E0918403F0E0E559FC4F958F8093AC
:100B8000840301C08081FF91EF919F918F912F91FC
:100B90000F900BBE0F900FBE0F901F9018951F92D5
:100BA0000F920FB60F9211240BB60F922F933F9313
:100BB0004F935F936F937F938F939F93AF93BF9365
:100BC000EF93FF9348E251E064E271E080E090E04F
:100BD000C1DCFF91EF91BF91AF919F918F917F9178
:100BE0006F915F914F913F912F910F900BBE0F909E
:100BF0000FBE0F901F9018951F920F920FB60F9275
:100C000011240BB60F922F933F934F935F936F93E3
:100C10007F938F939F93AF93BF93EF93FF9348EA94
:100C200050E064EA70E083E090E094DCFF91EF91A3
:100C3000BF91AF919F918F917F916F915F914F91F4
:100C40003F912F910F900BBE0F900FBE0F901F90F2
:100C500018951F920F920FB60F9211240BB60F9298
:100C60002F933F934F935F936F937F938F939F93B4
:100C7000AF93BF93EF93FF9348E950E064E970E0CE
:100C800082E090E067DCFF91EF91BF91AF919F917F
:100C90008F917F916F915F914F913F912F910F9025
:100CA0000BBE0F900FBE0F901F9018951F920F92C2
:100CB0000FB60F9211240BB60F922F933F934F93C1
:100CC0005F936F937F938F939F93AF93BF93EF93B4
:100CD000FF9348E850E064E870E081E090E03ADC9F
:100CE000FF91EF91BF91AF919F918F917F916F9104
:100CF0005F914F913F912F910F900BBE0F900FBEC0
:100D00000F901F90189585ED8093BC008091BC00DA
:100D100084FDFCCF10926A030895823109F466C005
:100D2000B8F4823069F1833009F073C07093A70280
:100D30006093A60281E697E09093030280930202FB
:100D400080916A00837F846080936A00ED9A5FC01F
:100D5000843141F1C8F1853109F05BC07093A9027B
:100D60006093A8028CE597E09093050280930402BB
:100D7000809169008C7F816080936900E89A47C008
:100D80007093A5026093A40286E697E09093010217
:100D90008093000280916A008C7F816080936A005A
:100DA000EC9A35C07093AB026093AA0287E597E096
:100DB000909307028093060280916900837F84608C
:100DC00080936900E99A23C07093AD026093AC02EE
:100DD00082E597E090930902809308028091690070
:100DE0008F7C806180936900EA9A11C07093AF0292
:100DF0006093AE028DE497E090930B0280930A0219
:100E0000809169008F73806480936900EB9A81E020
:100E1000089580E00895DC01ED91FD918081ED91D0
:100E2000FD919081ED91FD916C9163708E2309F09D
:100E300064609F2309F06860E8E2F7E0E60FF11DC7
:100E4000659565956D936D917D918D919D910994B9
:100E500023C01AC012C016C010C01EC009C014C0E2
:100E600013C006C019C009C00DC007C00DC014C012
:100E700062507040804090400BC061507040804094
:100E8000904006C06E5F01C06F5F7F4F8F4F9F4FD6
:100E90009E938E937E936E9308958091AE0290916F
:100EA000AF02B9CF8091AC029091AD02B4CF8091E6
:100EB000AA029091AB02AFCF8091A8029091A902B3
:100EC000AACF8091A6029091A702A5CF8091A402FB
:100ED0009091A502A0CF0C94E0130C94E0130C9415
:100EE000E0131F920F920FB60F9211240BB60F92C0
:100EF0002F933F934F935F936F937F938F939F9322
:100F0000AF93BF93EF93FF938091B900887F8036B2
:100F100009F49CC068F5883209F45BC090F4803114
:100F200009F454C038F4882309F4F6C0883009F471
:100F30004DC0F5C0883109F44CC0803209F45DC061
:100F4000EEC0803409F468C048F4803309F455C019
:100F5000883309F0E4C080936803D8C0803509F471
:100F60004FC0883509F45DC0883409F0D8C0D6C0B8
:100F7000883909F4C7C0A8F4883709F467C038F481
:100F8000883609F463C0803709F460C0C8C0883867
:100F900009F4B8C0803909F45FC0803809F0BFC0D7
:100FA0005BC0803B09F486C038F4803A09F466C01F
:100FB000883A09F47FC0B3C0803C09F4A7C0883CDC
:100FC00009F4A4C0883B09F48AC0A9C080916503D4
:100FD00010C09091670380916603981770F5E091B7
:100FE000670381E08E0F80936703F0E0EC5BFC4FBA
:100FF00080818093BB0085EC86C0809368038EC09F
:10100000E091670381E08E0F809367038091BB00BE
:10101000F0E0EC5BFC4F8083909167038091660366
:101020006EC0E091670381E08E0F8093670380912B
:10103000BB00F0E0EC5BFC4F808380916903811181
:101040006DC081E08093640384EA61C083E0809393
:101050006A031092F602CFCF8091F602803208F038
:1010600051C0E091F60281E08E0F8093F6028091EC
:10107000BB00F0E0EA52FD4F8083BDCF85EC80934A
:10108000BC0010926A038091F602803230F4E09145
:10109000F602F0E0EA52FD4F10826091F60270E035
:1010A000E091D402F091D50286ED92E0199510926C
:1010B000F60235C084E080936A031092D302109246
:1010C000D202E091D002F091D10219958091D20222
:1010D000811105C081E08093D2021092B002E091AC
:1010E000D30281E08E0F8093D302F0E0E055FD4FF4
:1010F00080818093BB009091D3028091D202981797
:1011000008F479CF85E88093BC0009C085EC809312
:10111000BC0010926A0303C010926803F4DDFF91D3
:10112000EF91BF91AF919F918F917F916F915F915F
:101130004F913F912F910F900BBE0F900FBE0F90CC
:101140001F9018954091D202262F30E0240F311DB8
:1011500021323105DCF420916A032430C9F4FC010A
:1011600080E090E0861758F43091D2022191DC01A2
:10117000A055BD4FA30FB11D2C930196F3CF8091C5
:10118000D202680F6093D20280E0089581E0089552
:1011900082E00895089508950C94E0130895089549
:1011A0000F931F93CF93DF93EC01062F142F62E070
:1011B000802F34D262E0812F31D2802F90E0FC0169
:1011C000EA5AFE4FE491F0E0EE0FFF1FE85FFE4F9A
:1011D000A591B491B983A883FC01E456FE4F849194
:1011E0008C83212F30E0F901EA5AFE4F9491E92FC8
:1011F000F0E0EE0FFF1FE85FFE4F459154915B83D7
:101200004A83F901E456FE4FE491ED831F8218866C
:1012100019861A86EBE3FFE13197F1F7EC91E823A9
:1012200081E009F480E0FA0120819D81922309F098
:1012300082608E83BE01802F70DD8B87BE01812F7F
:101240006CDD2B8590E0820F911D8B87DF91CF9114
:101250001F910F91089590916A039111FCCF91E035
:1012600090936A03909369032FEF20936803109281
:101270006703260F2093660390936503909165039F
:10128000880F892B8093650380916403813061F41A
:1012900010926403809165038093BB008091BC0031
:1012A00083FDF8CF85EC01C085EE8093BC00809172
:1012B0006A038130E1F380916703861710F460912F
:1012C0006703A4E4B3E024E233E0F9018E2F821B2C
:1012D000861718F48D918193F9CF862F0895382FB2
:1012E0002091230390916705213208F049C0809135
:1012F0006A038111FCCF42E040936A033093690393
:101300003FEF309368031092670320936603A3E0D6
:10131000B3E044E453E0FA013E2F341B321718F4D3
:101320003D913193F9CF1092650320916503990F98
:10133000922B9093650390916403913061F4109225
:101340006403909165039093BB009091BC0093FD62
:10135000F8CF95EC01C095EE9093BC0090916A0394
:101360009230E1F3909168039F3F79F08091680398
:10137000803241F080916803803331F084E005C011
:1013800081E003C082E001C083E01092020310926A
:1013900023031092010308953FB7F8948091FB0254
:1013A0009091FC02A091FD02B091FE0226B5A89B8F
:1013B00005C02F3F19F00196A11DB11D3FBFBA2FE7
:1013C000A92F982F8827820F911DA11DB11DBC0147
:1013D000CD0142E0660F771F881F991F4A95D1F70C
:1013E0000895009769F0FC0101900020E9F731971A
:1013F000AF01481B590BBC018BE693E00C944901EB
:1014000080E090E00895E0916B03F0916C0301900F
:10141000F081E02D682F8BE693E019948F929F92D4
:10142000AF92BF920F931F93CF93DF93CDB7DEB7E9
:10143000A1970FB6F894DEBF0FBECDBF19A2423000
:1014400008F44AE08E010F5D1F4F842E912CA12CD1
:10145000B12CA5019401C0D6E62FB901CA010150F3
:101460001109EA3014F4E05D01C0E95CD801EC93A5
:10147000232B242B252B69F7C801B3DFA1960FB6C8
:10148000F894DEBF0FBECDBFDF91CF911F910F91BA
:10149000BF90AF909F908F9008951F93CF93DF934D
:1014A000162FC8EAD4E0998521E020930103909398
:1014B00067051092020310922303682F88E094E0DE
:1014C0003FD9612F88E094E03BD981E008DF8E832B
:1014D000DF91CF911F910895CF93C82F81E0809322
:1014E0000103C093670510920203109223036FE07B
:1014F00088E094E025D981E0F2DE81110EC061E040
:101500008C2FA9DE109200038093FF02882329F01C
:1015100088E094E0CF910C948A028FEF9FEFCF91F7
:101520000895362F90E0FC01EE51FE4F4491FC01EE
:10153000E456FE4F2491FC01EA5AFE4F9491992300
:1015400009F46BC0442309F455C050E0FA01319707
:10155000E231F10508F04EC08827EE58FF4F8F4F5B
:101560000C944313809180008F7707C08091800096
:101570008F7D03C080918000877F809380003AC078
:1015800084B58F7702C084B58F7D84BD33C08091D0
:10159000B0008F7703C08091B0008F7D8093B00042
:1015A00029C0809190008F7707C0809190008F7D37
:1015B00003C080919000877F809390001BC0809132
:1015C000A0008F7707C08091A0008F7D03C080911D
:1015D000A000877F8093A0000DC0809120018F77AD
:1015E00007C0809120018F7D03C080912001877FFB
:1015F00080932001E92FF0E0EE0FFF1FE45CFE4F27
:10160000A591B4918FB7F894EC91311103C0209556
:101610002E2301C02E2B2C938FBF0895CF93DF93E1
:1016200090E0FC01E456FE4F2491FC01EA5AFE4F83
:101630008491882361F190E0880F991FFC01EE5D91
:10164000FE4FC591D491FC01E45CFE4FA591B4918D
:10165000611109C09FB7F8948881209582238883FF
:10166000EC912E230BC0623061F49FB7F89438815F
:10167000822F809583238883EC912E2B2C939FBF00
:1016800006C08FB7F894E8812E2B28838FBFDF9197
:10169000CF9108958F929F92AF92BF92CF92DF9297
:1016A000EF92FF926B017C0177DE4B015C01C1146C
:1016B000D104E104F104E9F06FDEDC01CB0188190B
:1016C0009909AA09BB09883E9340A105B10578F3A1
:1016D00021E0C21AD108E108F10888EE880E83E003
:1016E000981EA11CB11CC114D104E104F10421F71E
:1016F000DECFFF90EF90DF90CF90BF90AF909F90A4
:101700008F9008952FB7F8946091F7027091F802C6
:101710008091F9029091FA022FBF0895BF92CF9263
:10172000DF92EF92FF920F931F93CF93DF938091FD
:10173000B10491E090930103809367051092020336
:101740001092230368EA88E094E00E94A00381E0FD
:10175000C6DD66E08091B1047EDDE82E10920003C4
:101760008093FF02CFDF6B01F12C26E0E216F1043B
:10177000A4F48091B2049091B304892BB1F3C2DF39
:101780006C197D098091B2049091B3048617970774
:1017900060F781E08093B40433C088E094E00E9455
:1017A0008A02C82E88E094E00E948A02B82E88E05F
:1017B00094E00E948A02E82E88E094E00E948A0267
:1017C000D82E88E094E00E948A02F82E88E094E007
:1017D0000E948A021B2D00E00C291093A90400939B
:1017E000A804DD2D20E0C22FCE29D093AB04C093F6
:1017F000AA04982F88278F299093AD048093AC0476
:10180000DF91CF911F910F91FF90EF90DF90CF90DC
:10181000BF900895789484B5826084BD84B581605A
:1018200084BD85B5826085BD85B5816085BD8091AB
:101830006E00816080936E00109281008091810023
:10184000826080938100809181008160809381001B
:10185000809180008160809380008091B1008460DD
:101860008093B1008091B00081608093B00080913E
:1018700091008260809391008091910081608093BB
:101880009100809190008160809390008091A100F0
:1018900082608093A1008091A10081608093A1006B
:1018A0008091A00081608093A000809121018260DE
:1018B0008093210180912101816080932101809199
:1018C000200181608093200180917A008460809360
:1018D0007A0080917A00826080937A0080917A0009
:1018E000816080937A0080917A00806880937A008A
:1018F0001092C100E0917B03F0917C0382E0808331
:10190000E0917703F09178031082E0917903F091F0
:101910007A0380E1808310928303E0917F03F0914A
:10192000800386E08083E0917D03F0917E038081D7
:1019300080618083E0917D03F0917E0380818860E7
:101940008083E0917D03F0917E03808180688083B5
:10195000E0917D03F0917E0380818F7D80831092E2
:1019600000031092FF0210920203109223031092C0
:101970006A0381E0809369031092640361E084E16B
:10198000D0DD61E085E1CDDD8091B9008E7F80936F
:10199000B9008091B9008D7F8093B90088E480936D
:1019A000B80085E48093BC008BE696DD8F3F2FEF77
:1019B000920719F021E030E011C08AE68DDD8F3FFB
:1019C0002FEF920749F489E687DD833D910509F001
:1019D0005CC221E030E056C220E030E0873D910556
:1019E00009F41FC281E090E09093B0048093AF04AB
:1019F000AC01415051094230510538F421303105D4
:101A000011F02AE608C02BE606C02130310511F09E
:101A100028E601C029E62093B104029719F460E09A
:101A200089E33BDD60E083E238DD6FE680E235DDAF
:101A300068EE73E080E090E02DDEC4E6D0E0C12CDB
:101A4000D12C76016BDE6091A8047091A904072E59
:101A5000000C880B990BF0D49B01AC01C701B601B7
:101A6000EDD36B017C0169E170E080E090E012DE73
:101A7000219741F720E030E048EC52E4C701B6017D
:101A800045D4609398027093990280939A02909340
:101A90009B028091A504803308F04DC061E089E08D
:101AA000BDDD8091A504E82FF0E09F01220F331FD8
:101AB000E20FF31FEC5EFB4F9081907C9960908366
:101AC0001092A6041092A7046CE0D1D59CE0899FE7
:101AD000A00111249E01240F351FF901EE0FFF1FF5
:101AE0002E0F3F1FF901EC5EFB4F908196FD16C053
:101AF0002196CC30D10571F7813009F095C1109253
:101B0000800082E080938100109285001092840012
:101B1000B19A80916F00826080936F00E091A5047C
:101B2000F0E0CF01880F991FE80FF91FEC5EFB4F23
:101B30008081806480838091A70428E532E0790168
:101B4000E81AF10887FDF394EE0CFF1CEE0CFF1C65
:101B50008091A604C8E8D0E0C81BD10987FDD395C1
:101B6000CC0FDD1FCC0FDD1F4E010D2E000CAA087F
:101B7000BB08C7010F2C000CAA0BBB0B9C01AD01CD
:101B8000281939094A095B09AAE5B0E01BD324EBFF
:101B900030E040E050E0FAD2820E931EA41EB51E43
:101BA0008091A5048033C8F48C169D062CF0E401C6
:101BB000E814F9040CF4E7012297CC0FDD1F2FB7CE
:101BC000F89490E0FC01EE0FFF1F8E0F9F1FFC01A9
:101BD000EC5EFB4FD283C1832FBF1092A002109204
:101BE0009C0210929D0210929E0210929F02C0E4ED
:101BF00080917B00877F80937B00C0937C008091E5
:101C00007A00806480937A0080917A0086FDFCCF10
:101C1000809178002091790090E0922B6C01092E40
:101C2000000CEE08FF0897FF0BC08DE2ECDB662787
:101C30007727CB016C197D098E099F094AE003C003
:101C40004AE0C701B601EADB8AE592E0CADB5ADD69
:101C5000C090A102D090A2020D2C000CEE08FF084B
:101C6000DC01CB018C199D09AE09BF09883E934068
:101C7000A105B10560F346DD7093A2026093A10255
:101C80008091A002882309F4C9C08DE592E0A9DB08
:101C900045DD6091A8047091A904CB0177FF04C0D1
:101CA00088279927861B970B853F91405CF1072E6B
:101CB000000C880B990BC0D32091980230919902A7
:101CC00040919A0250919B02B8D220E030E04AE75E
:101CD00054E466D427EF3CEC42E157E361D49B0126
:101CE000AC0160919C0270919D0280919E02909146
:101CF0009F02A4D260939C0270939D0280939E02E7
:101D000090939F02C0909C02D0909D02E0909E0212
:101D1000F0909F02A7019601C701B601A4D48823C1
:101D200019F087E692E024C046015701E894B7F81D
:101D30002FEF3FEF4FE75FE7C501B40194D4811166
:101D40000CC02FEF3FEF4FE75FE7C501B401DAD2D8
:101D500018161CF48BE692E00BC02FEF3FEF4FE715
:101D60005FE4C701B60118D4181624F48FE692E098
:101D700038DB54C02FEF3FEF4FE75FECC701B601F0
:101D8000C1D287FDF3CF20E030E0A901C701B60141
:101D9000B9D287FF06C08DE236DBF7FAF094F7F888
:101DA000F0942AE037ED43EA5BE3C701B60146D27F
:101DB0004B015C0113D36B017C013CD39B01AC0153
:101DC000C501B4013AD24B015C014AE0C701B6013A
:101DD00025DB8EE218DB20E030E040E251E4C50173
:101DE000B401DED34B015C01F9D26B01E12CF12C83
:101DF0004AE0C701B60112DBC701B6011BD39B0144
:101E0000AC01C501B40119D220E030E040E251E458
:101E1000C7D3E4D280E090E04AE000DB0E944202B7
:101E2000E7CE82E090E0E0CD823061F41092900045
:101E300080939100109295001092940088BB80933B
:101E400071006CCE833069F41092A00082E0809320
:101E5000A1001092A5001092A40089BB809372008B
:101E60005DCE81115BCE1092200182E08093210132
:101E700010922501109224018ABB809373004ECEEC
:101E800020E030E080E090E0AFCD88E625DB833DC8
:101E90009105B1F383E792E0A4DA8AE592E0A1DA52
:101EA00068EC70E080E090E0F5DB7ECD85EB94E0BF
:101EB00072C9CF92DF92EF92FF9210926E0310924E
:101EC0006D0388EE93E0A0E0B0E080936F03909301
:101ED0007003A0937103B09372032AE132E0309350
:101EE0006C0320936B0325EC30E030937803209350
:101EF000770324EC30E030937A032093790320ECCD
:101F000030E030937C0320937B0321EC30E030936E
:101F10007E0320937D0322EC30E0309380032093F6
:101F20007F0326EC30E030938203209381031092EC
:101F300084031092850310928603109287031092F7
:101F40000B0410920A0480930C0490930D04A09348
:101F50000E04B0930F048CE292E0909309048093F6
:101F6000080486E592E09093B6048093B5048EE36E
:101F700092E09093B8048093B70425E030E030936A
:101F8000BA042093B90426E030E03093BC042093D7
:101F9000BB049093BE048093BD0487E090E09093CF
:101FA000C0048093BF0488E090E09093C2048093C3
:101FB000C10443E062E083EC94E0F2D843E162E1E3
:101FC0008FEC94E0EDD886E492E09093DC0480936B
:101FD000DB0480E090E0A8E8B1E48093DD04909316
:101FE000DE04A093DF04B093E0048DEC9CECACE441
:101FF000BDE38093E1049093E204A093E304B093E3
:10200000E40480E090E0A0E7B1E48093E5049093DD
:10201000E604A093E704B093E8041092E904109258
:10202000EA041092EB041092EC041092ED0410926A
:10203000EE041092EF041092F0041092F204109249
:10204000F104109243051092440510924505109238
:102050004605109249058BE1809347058AE18093FC
:10206000480561E08BE1DADA60E080914805D6DA74
:1020700030E2C32E3EE4D32EE12CF12CC0924A056F
:10208000D0924B05E0924C05F0924D051092500510
:102090008DE180934E058CE180934F0561E08DE1E9
:1020A000BDDA60E080914F05B9DAC0925105D09257
:1020B0005205E0925305F092540510925505109286
:1020C0005605109257051092580510925905109216
:1020D0005A0510925B0510925C058EE492E0909395
:1020E0005E0580935D0510925F0510926005109269
:1020F00061051092620589E190E0909364058093F8
:10210000630587E190E0909366058093650561E043
:1021100089E184DA61E08091650580DA83E090E00E
:102120009093B0048093AF041092B3041092B20461
:102130001092B4048091A4048033A0F491E0980F2D
:102140009093A4048093A50490E0FC01EE0FFF1F80
:102150008E0F9F1FFC01EC5EFB4F88EB9BE0928390
:10216000818303C08FEF8093A50480E090E0A0EA14
:10217000B1E48093680590936905A0936A05B093D4
:102180006B05FF90EF90DF90CF900895052E97FBA1
:1021900016F400940FD057FD05D01ED007FC02D0D6
:1021A00046F408C050954095309521953F4F4F4FCC
:1021B0005F4F089590958095709561957F4F8F4FF3
:1021C0009F4F08952BD0A59F900DB49F900DA49F75
:1021D000800D911D11240895A1E21A2EAA1BBB1B8C
:1021E000FD010DC0AA1FBB1FEE1FFF1FA217B307E3
:1021F000E407F50720F0A21BB30BE40BF50B661FF9
:10220000771F881F991F1A9469F7609570958095BC
:1022100090959B01AC01BD01CF010895A29FB00133
:10222000B39FC001A39F700D811D1124911DB29F0A
:10223000700D811D1124911D08955058BB27AA27A8
:102240000ED070C161D130F066D120F031F49F3FE3
:1022500011F41EF456C10EF4E095E7FB4CC1E92FD2
:1022600072D180F3BA17620773078407950718F0D5
:1022700071F49EF58AC10EF4E0950B2EBA2FA02DB5
:102280000B01B90190010C01CA01A0011124FF2723
:10229000591B99F0593F50F4503E68F11A16F0401E
:1022A000A22F232F342F4427585FF3CF469537951D
:1022B0002795A795F0405395C9F77EF41F16BA0BE2
:1022C000620B730B840BBAF09150A1F0FF0FBB1F90
:1022D000661F771F881FC2F70EC0BA0F621F731FD9
:1022E000841F48F4879577956795B795F7959E3F36
:1022F00008F0B3CF9395880F08F09927EE0F9795C4
:1023000087950895D4D008F481E008950CD00AC1CF
:1023100002D140F0F9D030F021F45F3F19F0EBC06A
:10232000511134C1EEC00FD198F39923C9F355234D
:10233000B1F3951B550BBB27AA27621773078407B8
:1023400038F09F5F5F4F220F331F441FAA1FA9F36E
:1023500033D00E2E3AF0E0E830D091505040E69560
:10236000001CCAF729D0FE2F27D0660F771F881FC1
:10237000BB1F261737074807AB07B0E809F0BB0BB0
:10238000802DBF01FF2793585F4F2AF09E3F5105D4
:1023900068F0B1C0FBC05F3FECF3983EDCF386957C
:1023A00077956795B795F7959F5FC9F7880F911D4A
:1023B0009695879597F90895E1E0660F771F881F36
:1023C000BB1F621773078407BA0720F0621B730BE9
:1023D000840BBA0BEE1F88F7E0950895BCD088F007
:1023E0009F5790F0B92F9927B751A0F0D1F0660F01
:1023F000771F881F991F1AF0BA95C9F712C0B1301C
:1024000081F0C3D0B1E00895C0C0672F782F88272E
:10241000B85F39F0B93FCCF3869577956795B3955A
:10242000D9F73EF490958095709561957F4F8F4FC9
:102430009F4F0895E89409C097FB3EF490958095CE
:10244000709561957F4F8F4F9F4F9923A9F0F92F7A
:1024500096E9BB279395F695879577956795B795F8
:10246000F111F8CFFAF4BB0F11F460FF1BC06F5FDE
:102470007F4F8F4F9F4F16C0882311F096E911C0F0
:10248000772321F09EE8872F762F05C0662371F011
:1024900096E8862F70E060E02AF09A95660F771F25
:1024A000881FDAF7880F9695879597F90895990F01
:1024B0000008550FAA0BE0E8FEEF16161706E8070E
:1024C000F907C0F012161306E407F50798F0621B2F
:1024D000730B840B950B39F40A2661F0232B242B04
:1024E000252B21F408950A2609F4A140A6958FEF23
:1024F000811D811D089597F99F6780E870E060E075
:1025000008959FEF80EC089500240A94161617068C
:1025100018060906089500240A94121613061406D4
:1025200005060895092E0394000C11F4882352F037
:10253000BB0F40F4BF2B11F460FF04C06F5F7F4FEF
:102540008F4F9F4F089557FD9058440F551F59F0D6
:102550005F3F71F04795880F97FB991F61F09F3F90
:1025600079F087950895121613061406551FF2CFB9
:102570004695F1DF08C0161617061806991FF1CF09
:1025800086957105610508940895E894BB27662730
:102590007727CB0197F908958ADF08F48FEF089524
:1025A0000BD0C0CFB1DF28F0B6DF18F0952309F0CB
:1025B000A2CFA7CF1124EACFC6DFA0F3959FD1F316
:1025C000950F50E0551F629FF001729FBB27F00DE1
:1025D000B11D639FAA27F00DB11DAA1F649F662736
:1025E000B00DA11D661F829F2227B00DA11D621F85
:1025F000739FB00DA11D621F839FA00D611D221F3F
:10260000749F3327A00D611D231F849F600D211D22
:10261000822F762F6A2F11249F5750408AF0E1F0C5
:1026200088234AF0EE0FFF1FBB1F661F771F881F0E
:1026300091505040A9F79E3F510570F05CCFA6CF56
:102640005F3FECF3983EDCF3869577956795B795F9
:10265000F795E7959F5FC1F7FE2B880F911D969523
:10266000879597F9089523DF880B990B0895991B97
:1026700079E004C0991F961708F0961B881F7A9579
:10268000C9F780950895EE0FFF1F881F8BBF079035
:10269000F691E02D1994CF93DF938230910510F4D9
:1026A00082E090E0E0916E05F0916F0520E030E06F
:1026B000C0E0D0E0309711F14081518148175907AF
:1026C000C0F04817590761F482819381209719F06F
:1026D0009B838A832BC090936F0580936E0526C0E1
:1026E0002115310519F04217530718F49A01BE015C
:1026F000DF01EF010280F381E02DDCCF21153105F0
:1027000009F1281B390B2430310590F412968D9174
:102710009C9113976115710521F0FB0193838283CE
:1027200004C090936F0580936E05FD01329644C0FE
:10273000FD01E20FF31F81939193225031092D93F4
:102740003C933AC020916C0530916D05232B41F4E8
:10275000209112023091130230936D0520936C0585
:1027600020911002309111022115310541F42DB74D
:102770003EB74091140250911502241B350BE09195
:102780006C05F0916D05E217F307A0F42E1B3F0BCB
:102790002817390778F0AC014E5F5F4F24173507D3
:1027A00048F04E0F5F1F50936D0540936C05819369
:1027B000919302C0E0E0F0E0CF01DF91CF91089566
:1027C0000F931F93CF93DF93009709F48CC0FC0104
:1027D00032971382128200916E0510916F050115D8
:1027E000110581F420813181820F931F20916C05A6
:1027F00030916D052817390779F5F0936D05E09351
:102800006C0571C0D80140E050E0AE17BF0750F42E
:1028100012962D913C911397AD012115310509F1C7
:10282000D901F3CF9D01DA01338322836081718165
:10283000860F971F8217930769F4EC01288139816D
:10284000260F371F2E5F3F4F318320838A819B8164
:1028500093838283452B29F4F0936F05E0936E05F3
:1028600042C01396FC93EE931297ED014991599152
:102870009E01240F351FE217F30771F480819181C7
:10288000840F951F029611969C938E93828193815B
:1028900013969C938E931297E0E0F0E0D801129685
:1028A0008D919C911397009719F0F8018C01F6CF48
:1028B0008D919C9198012E5F3F4F820F931F209125
:1028C0006C0530916D052817390769F4309729F4A4
:1028D00010926F0510926E0502C01382128210933F
:1028E0006D0500936C05DF91CF911F910F910895B5
:1028F00081E090E0F89400C011E0C5E1D1E000E093
:1029000005C0802FFE01BFDE2196011DC631D10713
:0A29100080E00807B1F7F894FFCF4C
:10291A004801480148014801480148014801480165
:10292A0000007005800000000000DB01490174010D
:10293A002102A5018301970100000000A003710391
:10294A00A7027A029E028A027B0200000000CE08D9
:10295A006B0700000000CF086F0700000000CA08DC
:10296A006D0700000000CB08CC080D0A004865611D
:10297A0064696E672C20006E616E00696E66006F76
:10298A007666004661696C656420746F20617574AF
:10299A006F646574656374206779726F20747970E7
:0429AA0065210000A3
:00000001FF
