:1000000027C1000016C70000E9C60000BCC60000FA
:100010008FC6000062C6000035C6000008C600009A
:10002000DBC5000046C1000044C1000042C1000021
:1000300040C100003EC100003CC100003AC10000C8
:1000400038C1000036C1000034C1000032C10000D8
:1000500030C100002EC100002CC100000C940E0C19
:1000600028C100003AC700000FC7000022C10000ED
:1000700020C100001EC100001CC100001AC1000008
:1000800018C1000016C1000014C1000012C1000018
:1000900010C100000EC100000CC100009EC2000093
:1000A00008C1000006C1000004C1000002C1000038
:1000B00000C10000FEC00000FCC00000FAC000004B
:1000C000F8C00000F6C00000F4C00000F2C000005C
:1000D000F0C00000EEC00000ECC00000EAC000006C
:1000E000E8C000007A0A7D0A6C0A700A740AB40A31
:1000F000810A850A8B0A8F0A930A990A9D0AA10A26
:10010000B40AA70AAB0AAF0A2A0B2F0B340B3E0B1B
:10011000480BC10B520B5A0B620B6C0B760B800B0E
:100120008F0B990BC10BA30BAD0BB70B000020007D
:100130002300260029002C002F00320000010000BF
:1001400003010601090100002100240027002A0004
:100150002D003000330001010000040107010A01F5
:1001600000002200250028002B002E003100340062
:1001700002010000050108010B0105050505070541
:1001800008080808020202020A0A08080404040413
:10019000010101010101010103030303030303033F
:1001A000040707070C0C0C0C0C0C0C0C02020202CE
:1001B00006060606060606060B0B0B0B0B0B0B0BB7
:1001C0000102102020080810204010204080020169
:1001D000020108040201010204081020408080404E
:1001E000201008040201800402018040201008044D
:1001F00002010804020101020408102040800102EB
:1002000004081020408000000A0B02090C0D0E08A3
:1002100007030401000000000000000000000000CF
:1002200000000000000000000000000000000000CE
:10023000000012111000000000000000000000008B
:10024000000000000000000000000000450F580CF6
:1002500011241FBECFEFD1E2DEBFCDBF00E00CBF47
:1002600012E0A0E0B2E0E6EAF7E200E00BBF02C075
:1002700007900D92A23DB107D9F725E0A2EDB2E0BB
:1002800001C01D92A030B207E1F711E0C7E2D1E052
:1002900000E006C021970109802FFE010E9475121F
:1002A000C632D10780E00807A9F70E94590C0C94C8
:1002B000C213A6CE9091310380913003981750F469
:1002C000E92FF0E0EA5AFC4F208130E09F5F9093E5
:1002D000310302C02FEF3FEFC90108958091300331
:1002E00090E020913103821B91090895089580E0E8
:1002F00090E0089585ED8093BC008091BC0084FD62
:10030000FCCF10929C03089540910003262F30E00B
:10031000240F311D21323105DCF420919C0324305F
:10032000C9F4FC0180E090E0861758F43091000396
:100330002191DC01A252BD4FA30FB11D2C93019658
:10034000F3CF80910003680F6093000380E008956D
:1003500081E0089582E00895CF92DF92EF92FF92BC
:100360000F931F93CF93DF937C01262F972F8A0142
:1003700080913203882391F0C62FD72F6E01C40ECF
:10038000D51ECC15DD0569F06991D701ED91FC9181
:100390000190F081E02DC7011995F3CF642F822FD2
:1003A000B3DFC801DF91CF911F910F91FF90EF90C4
:1003B000DF90CF900895CF93DF931F92CDB7DEB734
:1003C0006983209132032223D1F0209155032032FA
:1003D00040F021E030E0FC013383228380E090E0B4
:1003E00014C080913303E82FF0E0EC5CFC4F99815E
:1003F00090838F5F809333038093550304C061E043
:10040000CE01019681DF81E090E00F90DF91CF91E6
:100410000895823109F466C0B8F4823069F18330FE
:1004200009F073C07093D5026093D4028DED92E011
:10043000909303028093020280916A00837F84601C
:1004400080936A00ED9A5FC0843141F1C8F1853133
:1004500009F05BC07093D7026093D60288ED92E0FA
:100460009093050280930402809169008C7F8160E3
:1004700080936900E89A47C07093D3026093D202D8
:1004800082EE92E0909301028093000280916A00D4
:100490008C7F816080936A00EC9A35C07093D9029A
:1004A0006093D80283ED92E0909307028093060256
:1004B00080916900837F846080936900E99A23C0FA
:1004C0007093DB026093DA028EEC92E09093090263
:1004D00080930802809169008F7C8061809369001D
:1004E000EA9A11C07093DD026093DC0289EC92E01D
:1004F00090930B0280930A02809169008F7380644D
:1005000080936900EB9A81E0089580E00895DC0112
:10051000ED91FD918081ED91FD919081ED91FD91A5
:100520006C9163708E2309F064609F2309F068600A
:10053000E4EAF2E0E60FF11D659565956D936D9126
:100540007D918D919D91099423C01AC012C016C04F
:1005500010C01EC009C014C013C006C019C009C015
:100560000DC007C00DC014C0625070408040904064
:100570000BC0615070408040904006C06E5F01C06B
:100580006F5F7F4F8F4F9F4F9E938E937E936E939F
:1005900008958091DC029091DD02B9CF8091DA025A
:1005A0009091DB02B4CF8091D8029091D902AFCF65
:1005B0008091D6029091D702AACF8091D4029091D7
:1005C000D502A5CF8091D2029091D302A0CF0C94F6
:1005D00026130C9426130C9426131F920F920FB619
:1005E0000F9211240BB60F922F933F934F935F936B
:1005F0006F937F938F939F93AF93BF93EF93FF93EB
:100600008091B900887F803609F49CC068F58832F3
:1006100009F45BC090F4803109F454C038F48823A5
:1006200009F4F6C0883009F44DC0F5C0883109F4EA
:100630004CC0803209F45DC0EEC0803409F468C05B
:1006400048F4803309F455C0883309F0E4C080933E
:100650009A03D8C0803509F44FC0883509F45DC0CD
:10066000883409F0D8C0D6C0883909F4C7C0A8F4C6
:10067000883709F467C038F4883609F463C08037D6
:1006800009F460C0C8C0883809F4B8C0803909F4DA
:100690005FC0803809F0BFC05BC0803B09F486C0F2
:1006A00038F4803A09F466C0883A09F47FC0B3C0D0
:1006B000803C09F4A7C0883C09F4A4C0883B09F435
:1006C0008AC0A9C08091970310C09091990380912E
:1006D0009803981770F5E091990381E08E0F80934D
:1006E0009903F0E0EA58FC4F80818093BB0085ECD1
:1006F00086C080939A038EC0E091990381E08E0FAB
:10070000809399038091BB00F0E0EA58FC4F80830E
:1007100090919903809198036EC0E091990381E0D4
:100720008E0F809399038091BB00F0E0EA58FC4F54
:10073000808380919B0381116DC081E0809396033B
:1007400084EA61C083E080939C0310922403CFCF9E
:1007500080912403803208F051C0E091240381E0AD
:100760008E0F809324038091BB00F0E0EC5FFC4F80
:100770008083BDCF85EC8093BC0010929C03809158
:100780002403803230F4E0912403F0E0EC5FFC4F6E
:1007900010826091240370E0E0910203F091030362
:1007A00084E093E019951092240335C084E080938F
:1007B0009C031092010310920003E091FE02F0915D
:1007C000FF02199580910003811105C081E080939B
:1007D00000031092DE02E091010381E08E0F80930E
:1007E0000103F0E0E252FD4F80818093BB009091C5
:1007F000010380910003981708F479CF85E880936E
:10080000BC0009C085EC8093BC0010929C0303C01F
:1008100010929A036FDDFF91EF91BF91AF919F917D
:100820008F917F916F915F914F913F912F910F9099
:100830000BBE0F900FBE0F901F901895089508954E
:1008400008950F931F93CF93DF93EC01062F142F7E
:1008500062E0802F9DD662E0812F9AD6802F90E0B3
:10086000FC01E658FE4FE491F0E0EE0FFF1FE45D5F
:10087000FE4FA591B491B983A883FC01E054FE4FCB
:1008800084918C83212F30E0F901E658FE4F94913A
:10089000E92FF0E0EE0FFF1FE45DFE4F459154910C
:1008A0005B834A83F901E054FE4FE491ED831F829C
:1008B000188619861A86EBE3FFE13197F1F7EC9180
:1008C000E82381E009F480E0FA0120819D819223F0
:1008D00009F082608E83BE01802F9BDD8B87BE0175
:1008E000812F97DD2B8590E0820F911D8B87DF9103
:1008F000CF911F910F9108950F931F93CF93DF9383
:100900008C01EB016F3F710509F03CF461308FEF12
:10091000780764F077FF03C00BC0CFEFD0E0BE01D3
:10092000F801828171D660E070E00BC0C1E0DFEFBA
:1009300060E070E0F801828167D6662777276C1B3C
:100940007D0BF8018481DF91CF911F910F915CC6DF
:100950000895CF92DF92EF92FF920F931F93CF9360
:10096000DF936C017A018B01C0E0D0E0CE15DF058A
:1009700089F0D8016D918D01D601ED91FC91019026
:10098000F081E02DC6011995892B11F47E0102C07A
:100990002196ECCFC701DF91CF911F910F91FF906E
:1009A000EF90DF90CF900895FC01538D448D252F5B
:1009B00030E0842F90E0821B930B541710F0CF96F9
:1009C000089501970895FC01918D828D981761F02B
:1009D000828DDF01A80FB11D5D968C91928D9F5F76
:1009E0009F73928F90E008958FEF9FEF0895FC0121
:1009F000918D828D981731F0828DE80FF11D858DD4
:100A000090E008958FEF9FEF0895FC01918D228D66
:100A1000892F90E0805C9F4F821B91098F739927EB
:100A200008958DE993E0F1DF21E0892B09F420E0BE
:100A3000822F0895FC01848DDF01A80FB11DA35AF8
:100A4000BF4F2C91848D90E001968F739927848FEE
:100A5000A689B7892C93A089B1898C9180648C93E5
:100A6000938D848D981306C00288F389E02D8081D0
:100A70008F7D80830895EF92FF920F931F93CF9302
:100A8000DF93EC0181E0888F9B8D8C8D981305C0DE
:100A9000E889F989808185FD23C0F62E0B8D10E051
:100AA0000F5F1F4F0F731127E02E8C8DE8120BC0C4
:100AB0000FB607FCFACFE889F989808185FFF5CF69
:100AC000CE01B8DFF2CF8B8DFE01E80FF11DE35AA6
:100AD000FF4FF0820B8FEA89FB898081806207C01B
:100AE000EE89FF896083E889F98980818064808349
:100AF00081E090E0DF91CF911F910F91FF90EF90F7
:100B00000895CF93DF93EC01888D8823C1F0EA89A3
:100B1000FB89808185FD05C0A889B9898C9186FDF6
:100B20000EC00FB607FCF5CF808185FFF2CFA889F4
:100B3000B9898C9185FFEDCFCE017CDFE8CFDF91C5
:100B4000CF91089580E090E0892B19F06ADF811140
:100B500025C080E090E0892B41F080E090E0892B77
:100B600021F00E94000081111CC080E090E0892BE0
:100B700041F080E090E0892B21F00E94000081117B
:100B800013C080E090E0892BA1F080E090E0892BF9
:100B900081F00E94000081110AC008950E940000A7
:100BA000D8CF0E940000E1CF0E940000EACF0C9451
:100BB000000008950895E091310380913003E81713
:100BC00030F4F0E0EA5AFC4F808190E008958FEF16
:100BD0009FEF08950E94BE131F920F920FB60F92BF
:100BE00011240BB60F922F933F934F935F936F9304
:100BF0007F938F939F93AF93BF93EF93FF93E09176
:100C00000E02F0910F021995FF91EF91BF91AF91F4
:100C10009F918F917F916F915F914F913F912F9114
:100C20000F900BBE0F900FBE0F901F9018951F9244
:100C30000F920FB60F9211240BB60F922F933F9382
:100C40004F935F936F937F938F939F93AF93BF93D4
:100C5000EF93FF93E0910C02F0910D021995FF9133
:100C6000EF91BF91AF919F918F917F916F915F9124
:100C70004F913F912F910F900BBE0F900FBE0F9091
:100C80001F9018951F920F920FB60F9211240BB65A
:100C90000F922F933F934F935F936F937F938F9315
:100CA0009F93AF93BF93EF93FF93E0910202F09174
:100CB00003021995FF91EF91BF91AF919F918F9191
:100CC0007F916F915F914F913F912F910F900BBE4C
:100CD0000F900FBE0F901F9018951F920F920FB696
:100CE0000F9211240BB60F922F933F934F935F9364
:100CF0006F937F938F939F93AF93BF93EF93FF93E4
:100D0000E0910002F09101021995FF91EF91BF91DE
:100D1000AF919F918F917F916F915F914F913F9193
:100D20002F910F900BBE0F900FBE0F901F90189534
:100D30001F920F920FB60F9211240BB60F922F93A2
:100D40003F934F935F936F937F938F939F93AF9353
:100D5000BF93EF93FF93E0910A02F0910B02199574
:100D6000FF91EF91BF91AF919F918F917F916F9183
:100D70005F914F913F912F910F900BBE0F900FBE3F
:100D80000F901F9018951F920F920FB60F9211247B
:100D90000BB60F922F933F934F935F936F937F9375
:100DA0008F939F93AF93BF93EF93FF93E0910802CC
:100DB000F09109021995FF91EF91BF91AF919F9129
:100DC0008F917F916F915F914F913F912F910F90F4
:100DD0000BBE0F900FBE0F901F9018951F920F9291
:100DE0000FB60F9211240BB60F922F933F934F9390
:100DF0005F936F937F938F939F93AF93BF93EF9383
:100E0000FF93E0910602F09107021995FF91EF918F
:100E1000BF91AF919F918F917F916F915F914F9112
:100E20003F912F910F900BBE0F900FBE0F901F9010
:100E300018951F920F920FB60F9211240BB60F92B6
:100E40002F933F934F935F936F937F938F939F93D2
:100E5000AF93BF93EF93FF93E0910402F0910502EB
:100E60001995FF91EF91BF91AF919F918F917F91D4
:100E70006F915F914F913F912F910F900BBE0F900B
:100E80000FBE0F901F9018951F920F920FB60F92E2
:100E900011240BB60F922F933F934F935F936F9351
:100EA0007F938F939F93AF93BF93EF93FF938DE9BE
:100EB00093E0C0DDFF91EF91BF91AF919F918F9132
:100EC0007F916F915F914F913F912F910F900BBE4A
:100ED0000F900FBE0F901F9018951F920F920FB694
:100EE0000F9211240BB60F922F938F939F93EF9332
:100EF000FF93E091AD03F091AE038081E091B303E5
:100F0000F091B40382FD12C090818091B6038F5F8F
:100F10008F732091B703821751F0E091B603F0E090
:100F2000E356FC4F958F8093B60301C08081FF91FB
:100F3000EF919F918F912F910F900BBE0F900FBE4D
:100F40000F901F901895009761F0FC010190002010
:100F5000E9F73197AF01481B590BBC018DE993E0CC
:100F6000F8CC80E090E008958F929F92AF92BF926C
:100F70000F931F93CF93DF93CDB7DEB7A1970FB633
:100F8000F894DEBF0FBECDBF19A2423008F44AE08C
:100F90008E010F5D1F4F842E912CA12CB12CA50129
:100FA00094010E945312E62FB901CA0101501109A0
:100FB000EA3014F4E05D01C0E95CD801EC93232B26
:100FC000242B252B61F7C801BEDFA1960FB6F8943C
:100FD000DEBF0FBECDBFDF91CF911F910F91BF90AC
:100FE000AF909F908F9008954F925F926F927F92F3
:100FF0008F929F92AF92BF92CF92DF92EF92FF9229
:101000006B017C019B01AC010E943C12882319F00A
:1010100085EC92E01AC046015701E894B7F82FEF2B
:101020003FEF4FE75FE7C501B4010E943C12811119
:101030000FC02FEF3FEF4FE75FE7C501B4010E94FC
:10104000861018162CF489EC92E07DDF7C0189C0B3
:101050002FEF3FEF4FE75FE4C701B6010E94D511C4
:1010600018161CF48DEC92E0F0CF2FEF3FEF4FE716
:101070005FECC701B6010E94861087FDF3CF20E028
:1010800030E0A901C701B6010E94861087FF11C098
:10109000E0919D03F0919E030190F081E02D6DE2BF
:1010A0008DE993E019955C01F7FAF094F7F8F09464
:1010B00002C0A12CB12C2AE037ED43EA5BE3C70163
:1010C000B601C0D72B013C010E94F7106B017C01D7
:1010D0000E9423119B01AC01C301B201B2D72B01C5
:1010E0003C014AE0C701B6013FDF7C01EA0CFB1C72
:1010F000E0919D03F0919E030190F081E02D6EE25E
:101100008DE993E01995E80EF91E20E030E040E209
:1011100051E4C301B2010E94D9112B013C010E948C
:10112000F7104B01A12CB12C4AE0C501B4011CDF22
:10113000E80EF91EC501B4010E9423119B01AC0108
:10114000C301B2017ED720E030E040E251E40E94CA
:10115000D9110E94F71080E090E04AE005DFE80E28
:10116000F91E8CE592E0EFDE8E0D9F1DFF90EF9053
:10117000DF90CF90BF90AF909F908F907F906F90B7
:101180005F904F90089590919C039111FCCF91E056
:1011900090939C0390939B032FEF20939A031092BC
:1011A0009903260F209398039093970390919703A8
:1011B000880F892B8093970380919603813061F487
:1011C00010929603809197038093BB008091BC009E
:1011D00083FDF8CF85EC01C085EE8093BC00809143
:1011E0009C038130E1F380919903861710F460919C
:1011F0009903A6E7B3E026E533E0F9018E2F821BC1
:10120000861718F48D918193F9CF862F0895382F82
:101210002091550390915403213208F049C08091E8
:101220009C038111FCCF42E040939C0330939B03CD
:101230003FEF30939A031092990320939803A4E30D
:10124000B3E046E753E0FA013E2F341B321718F49F
:101250003D913193F9CF1092970320919703990F05
:10126000922B9093970390919603913061F4109292
:101270009603909197039093BB009091BC0093FDCF
:10128000F8CF95EC01C095EE9093BC0090919C0333
:101290009230E1F390919A039F3F79F080919A0305
:1012A000803241F080919A03803331F084E005C0B0
:1012B00081E003C082E001C083E01092330310920A
:1012C0005503109232030895BF92CF92DF92EF92AE
:1012D000FF920F931F93CF93DF9380914F0491E080
:1012E000909332038093540310923303109255036A
:1012F00068EA8AE394E05FD881E089DF66E0809164
:101300004F0441DFE82E10923103809330037AD2EC
:101310006B01F12C26E0E216F104A4F48091500454
:1013200090915104892BB1F36DD26C197D09809194
:101330005004909151048617970760F781E08093DD
:10134000520433C08AE394E00E945A01C82E8AE313
:1013500094E00E945A01B82E8AE394E00E945A0158
:10136000E82E8AE394E00E945A01D82E8AE394E0A2
:101370000E945A01F82E8AE394E00E945A011B2D24
:1013800000E00C291093470400934604DD2D20E073
:10139000C22FCE29D0934904C0934804982F8827A0
:1013A0008F2990934B0480934A04DF91CF911F9132
:1013B0000F91FF90EF90DF90CF90BF9008951F9313
:1013C000CF93DF93162FC6E4D4E0998521E02093D4
:1013D0003203909354031092330310925503682FF5
:1013E0008AE394E00E94DB01612F8AE394E00E948B
:1013F000DB0181E00CDF8E83DF91CF911F91089597
:101400003FB7F8948091F8049091F904A091FA0400
:10141000B091FB0426B5A89B05C02F3F19F001969B
:10142000A11DB11D3FBFBA2FA92F982F8827820F6A
:10143000911DA11DB11DBC01CD0142E0660F771FBA
:10144000881F991F4A95D1F70895CF93C82F81E03F
:1014500080933203C09354031092330310925503C8
:101460006FE08AE394E00E94DB0181E0D0DE81112D
:101470000EC061E08C2F87DE109231038093300321
:10148000882329F08AE394E0CF910C945A018FEFDE
:101490009FEFCF910895362F90E0FC01EA5FFD4F5A
:1014A0004491FC01E054FE4F2491FC01E658FE4FAC
:1014B0009491992309F46BC0442309F455C050E07A
:1014C000FA013197E231F10508F04EC08827EE5855
:1014D000FF4F8F4F0C947512809180008F7707C05B
:1014E000809180008F7D03C080918000877F8093F2
:1014F00080003AC084B58F7702C084B58F7D84BDEB
:1015000033C08091B0008F7703C08091B0008F7D91
:101510008093B00029C0809190008F7707C08091A0
:1015200090008F7D03C080919000877F8093900012
:101530001BC08091A0008F7707C08091A0008F7D95
:1015400003C08091A000877F8093A0000DC0809190
:1015500020018F7707C0809120018F7D03C080918B
:101560002001877F80932001E92FF0E0EE0FFF1F1D
:10157000E05AFE4FA591B4918FB7F894EC913111D8
:1015800003C020952E2301C02E2B2C938FBF0895CE
:10159000CF93DF9390E0FC01E054FE4F2491FC01D7
:1015A000E658FE4F8491882361F190E0880F991FDF
:1015B000FC01EA5BFE4FC591D491FC01E05AFE4F5D
:1015C000A591B491611109C09FB7F89488812095C5
:1015D00082238883EC912E230BC0623061F49FB785
:1015E000F8943881822F809583238883EC912E2B69
:1015F0002C939FBF06C08FB7F894E8812E2B2883C9
:101600008FBFDF91CF9108951F93CF93DF93182F52
:10161000EB0161E0BDDF209711F460E004C0CF3F33
:10162000D10531F461E0812FDF91CF911F9133CF4C
:10163000E12FF0E0EA5FFD4FE4914E2F50E0FA0118
:101640003197E231F10508F09CC08827EC57FF4F35
:101650008F4F4BC784B5806884BDC7BD97C084B524
:10166000806284BDC8BD92C08091800080688093F4
:101670008000D0938900C093880088C0809180004A
:10168000806280938000D0938B00C0938A007EC0DC
:1016900080918000886080938000D0938D00C093FB
:1016A0008C0074C08091B00080688093B000C093BB
:1016B000B3006CC08091B00080628093B000C09392
:1016C000B40064C080919000806880939000D093B3
:1016D0009900C09398005AC08091900080628093D6
:1016E0009000D0939B00C0939A0050C080919000CE
:1016F000886080939000D0939D00C0939C0046C06A
:101700008091A00080688093A0008091A0008F7BD2
:101710008093A000D093A900C093A80037C0809107
:10172000A00080628093A000D093AB00C093AA0079
:101730002DC08091A00088608093A000D093AD0060
:10174000C093AC0023C08091200180688093200169
:10175000D0932901C093280119C080912001806293
:1017600080932001D0932B01C0932A010FC0809158
:101770002001886080932001D0932D01C0932C011B
:1017800005C0C038D1050CF04DCF47CFDF91CF91C8
:101790001F9108958F929F92AF92BF92CF92DF9246
:1017A000EF92FF926B017C012BDE4B015C01C114B7
:1017B000D104E104F104E9F023DEDC01CB01881956
:1017C0009909AA09BB09883E9340A105B10578F3A0
:1017D00021E0C21AD108E108F10888EE880E83E002
:1017E000981EA11CB11CC114D104E104F10421F71D
:1017F000DECFFF90EF90DF90CF90BF90AF909F90A3
:101800008F9008952FB7F8946091F4047091F504C7
:101810008091F6049091F7042FBF08951F920F92C4
:101820000FB60F9211242F933F938F939F93AF93F3
:10183000BF938091F4049091F504A091F604B091C7
:10184000F7043091F30423E0230F2D3720F40196A1
:10185000A11DB11D05C026E8230F0296A11DB11DD3
:101860002093F3048093F4049093F504A093F6047A
:10187000B093F7048091F8049091F904A091FA04D0
:10188000B091FB040196A11DB11D8093F8049093C3
:10189000F904A093FA04B093FB04BF91AF919F9118
:1018A0008F913F912F910F900FBE0F901F90189521
:1018B0000895CF93DF9300D01F92CDB7DEB7789411
:1018C00084B5826084BD84B5816084BD85B5826045
:1018D00085BD85B5816085BD80916E0081608093F6
:1018E0006E0010928100809181008260809381005F
:1018F000809181008160809381008091800081606F
:10190000809380008091B10084608093B1008091C9
:10191000B00081608093B0008091910082608093DC
:10192000910080919100816080939100809190005E
:101930008160809390008091A10082608093A100DB
:101940008091A10081608093A1008091A0008160BE
:101950008093A00080912101826080932101809179
:101960002101816080932101809120018160809319
:10197000200180917A00846080937A0080917A00BF
:10198000826080937A0080917A00816080937A00EF
:1019900080917A00806880937A001092C100E09173
:1019A000AD03F091AE0382E08083E091A903F09152
:1019B000AA031082E091AB03F091AC0380E1808335
:1019C0001092B503E091B103F091B20386E08083F9
:1019D000E091AF03F091B003808180618083E0915A
:1019E000AF03F091B003808188608083E091AF0302
:1019F000F091B003808180688083E091AF03F09123
:101A0000B00380818F7D8083109231031092300368
:101A1000109233031092550310929C0381E080933F
:101A20009B031092960361E084E135DD61E085E17E
:101A300032DD8091B9008E7F8093B9008091B9002A
:101A40008D7F8093B90088E48093B80085E480930B
:101A5000BC008BE6FADC8F3F2FEF920719F021E0F4
:101A600030E011C08AE6F1DC8F3FEFEF9E0749F4CA
:101A700089E6EBDC833D910509F0F6C121E030E019
:101A8000F0C120E030E0873D910509F4E5C181E037
:101A900090E090934E0480934D04AC014150510965
:101AA0004230510538F42130310511F02AE608C0E2
:101AB0002BE606C02130310511F028E601C029E6E9
:101AC00020934F04029719F460E089E378DC60E02A
:101AD00083E275DC6FE680E272DC68EE73E080E042
:101AE00090E058DE04E610E0C12CD12C7601ECDB4E
:101AF0006091460470914704072E000C880B990BE7
:101B0000A4D39B01AC01C701B6019CD26B017C013F
:101B100069E170E080E090E03DDE0150110939F7A5
:101B200020E030E048EC52E4C701B601F3D2609304
:101B30002503709326038093270390932803109224
:101B40002C0310922D0310922E0310922F0381E08C
:101B50008093290382E592E0F6D98CE592E0F3D9EF
:101B600004E110E0C0902C03D0902D03E0902E03F0
:101B7000F0902F0320E030E0A901C701B60115D491
:101B8000181624F0F7FAF094F7F8F094A7019601EC
:101B900060E070E084E393E454D24B015C01209157
:101BA000730430917404409175045091760449D2C5
:101BB00069837A838B839C838092730490927404EC
:101BC000A0927504B0927604809177049091780485
:101BD000FC01EE0FFF1FEE0FFF1FE559FB4F86863E
:101BE0009786A08AB18A0196B8014AD49093780466
:101BF0008093770439E7E32E34E0F32E412C512C07
:101C00003201F70121913191419151917F01C3013D
:101C1000B20118D22B013C01F9ECEF16F4E0FF06FB
:101C200081F72091630430916404409165045091E0
:101C30006604C501B401BDD36B017C01209167042A
:101C4000309168044091690450916A04C301B20163
:101C5000B0D39B01AC01C701B601F4D16B017C018B
:101C600020916B0430916C0440916D0450916E048E
:101C700069817A818B819C819CD39B01AC01C701D6
:101C8000B601E0D16B017C018FE592E05CD9209137
:101C90006304309164044091650450916604C50169
:101CA000B40187D3A1D988E692E04DD92091670489
:101CB000309168044091690450916A04C301B201F3
:101CC00078D392D981E792E03ED920916B0430918C
:101CD0006C0440916D0450916E0469817A818B810E
:101CE0009C8167D381D98AE792E02DD9C701B601DB
:101CF0007BD920E030E048E453E4C701B60155D376
:101D0000181684F020E030E048E453ECC701B60137
:101D1000FDD187FF0DC0C12CD12C98E4E92E93ECA6
:101D2000F92E06C0C12CD12C88E4E82E83E4F82ECD
:101D300083E892E008D9C701B60156D9C701B601B8
:101D400051D26B017C01CB0177FF04C08827992712
:101D50008C199D09459774F0B6018BE594E00E94BB
:101D60007C04B60185E594E00E947C0480E992E061
:101D7000EAD80CC060E070E08BE594E00E947C043F
:101D800060E070E085E594E00E947C043BDDC0905B
:101D90002A03D0902B030D2C000CEE08FF08DC0169
:101DA000CB018C199D09AE09BF098897A105B10522
:101DB00068F328DD70932B0360932A038091290335
:101DC000882309F446C08BE992E0BDD87DDA6091A2
:101DD000460470914704CB0177FF04C088279927F8
:101DE000861B970B853F91405CF1072E000C880BFA
:101DF000990B2BD220912503309126034091270384
:101E0000509128031ED120E030E040E252E4D1D2CC
:101E100027EF3CEC42E157E3CCD29B01AC0160914F
:101E20002C0370912D0380912E0390912F030AD1E2
:101E300060932C0370932D0380932E0390932F03B4
:101E400060912C0370912D0380912E0390912F03AC
:101E5000CBD80E94A20586CE82E090E01ACE20E088
:101E600030E080E090E015CE88E6EFDA833D910522
:101E7000B1F385EA92E067D88CE592E064D868EC2B
:101E800070E080E090E086DCE4CDCF92DF92EF92CC
:101E9000FF92CF93DF93EDE9F3E01382128288EE95
:101EA00093E0A0E0B0E084839583A683B7832AE122
:101EB00032E03183208325EC30E03587248724EC21
:101EC00030E03787268720EC30E0318B208B21EC07
:101ED00030E0338B228B22EC30E0358B248B26ECE8
:101EE00030E0378B268B118E128E138E148EEAE320
:101EF000F4E01382128284839583A683B7838CE2F5
:101F000092E091838083E3E5F4E08EE492E09183B4
:101F100080838EE392E09383828325E030E03583F3
:101F2000248326E030E0378326839187808787E00B
:101F300090E09387828788E090E09587848786E4A5
:101F400092E09787868780E090E0A8E8B1E4808BF4
:101F5000918BA28BB38B8DEC9CECACE4BDE3848BBA
:101F6000958BA68BB78B80E090E0A0E7B1E4808FE3
:101F7000918FA28FB38F148E158E168E178E10A28E
:101F800011A212A213A215A214A243E062E089ECEE
:101F900094E00E94210443E162E185ED94E00E9417
:101FA000210487E492E5A4EDBAE38093E1049093E1
:101FB000E204A093E304B093E4041092E7048BE1FD
:101FC0008093E504C6EED4E08AE1888361E08BE18A
:101FD000DFDA60E08881DCDA80E2C82E8EE4D82E79
:101FE000E12CF12CC092E804D092E904E092EA04DA
:101FF000F092EB041092EE048DE18093EC04CDEEB0
:10200000D4E08CE1888361E08DE1C2DA60E0888110
:10201000BFDAC092EF04D092F004E092F104F092A3
:10202000F204E6E4F4E083E090E09087878313868F
:1020300012861486DF91CF91FF90EF90DF90CF90C2
:1020400008955058BB27AA270ED075C166D130F02D
:102050006BD120F031F49F3F11F41EF45BC10EF4FC
:10206000E095E7FB51C1E92F77D180F3BA176207FA
:1020700073078407950718F071F49EF58FC10EF46D
:10208000E0950B2EBA2FA02D0B01B90190010C0188
:10209000CA01A0011124FF27591B99F0593F50F4A0
:1020A000503E68F11A16F040A22F232F342F4427F8
:1020B000585FF3CF469537952795A795F0405395F0
:1020C000C9F77EF41F16BA0B620B730B840BBAF0C0
:1020D0009150A1F0FF0FBB1F661F771F881FC2F72B
:1020E0000EC0BA0F621F731F841F48F4879577953F
:1020F0006795B795F7959E3F08F0B3CF9395880FF6
:1021000008F09927EE0F979587950895D9D008F490
:1021100081E008950CD00FC107D140F0FED030F01F
:1021200021F45F3F19F0F0C0511139C1F3C014D14F
:1021300098F39923C9F35523B1F3951B550BBB278E
:10214000AA2762177307840738F09F5F5F4F220F3B
:10215000331F441FAA1FA9F333D00E2E3AF0E0E834
:1021600030D091505040E695001CCAF729D0FE2F80
:1021700027D0660F771F881FBB1F26173707480712
:10218000AB07B0E809F0BB0B802DBF01FF279358C8
:102190005F4F2AF09E3F510568F0B6C000C15F3F17
:1021A000ECF3983EDCF3869577956795B795F795B0
:1021B0009F5FC9F7880F911D9695879597F90895A8
:1021C000E1E0660F771F881FBB1F62177307840744
:1021D000BA0720F0621B730B840BBA0BEE1F88F753
:1021E000E095089504D06894B111D9C00895BCD089
:1021F00088F09F5790F0B92F9927B751A0F0D1F0F0
:10220000660F771F881F991F1AF0BA95C9F712C079
:10221000B13081F0C3D0B1E00895C0C0672F782FEE
:102220008827B85F39F0B93FCCF3869577956795E5
:10223000B395D9F73EF490958095709561957F4F51
:102240008F4F9F4F0895E89409C097FB3EF49095F7
:102250008095709561957F4F8F4F9F4F9923A9F07F
:10226000F92F96E9BB279395F6958795779567950E
:10227000B795F111F8CFFAF4BB0F11F460FF1BC052
:102280006F5F7F4F8F4F9F4F16C0882311F096E9E5
:1022900011C0772321F09EE8872F762F05C0662393
:1022A00071F096E8862F70E060E02AF09A95660F4C
:1022B000771F881FDAF7880F9695879597F9089505
:1022C000990F0008550FAA0BE0E8FEEF1616170647
:1022D000E807F907C0F012161306E407F50798F0AF
:1022E000621B730B840B950B39F40A2661F0232BC8
:1022F000242B252B21F408950A2609F4A140A69544
:102300008FEF811D811D089597F99F6780E870E028
:1023100060E008959FEF80EC089500240A9416165B
:10232000170618060906089500240A9412161306C3
:10233000140605060895092E0394000C11F4882351
:1023400052F0BB0F40F4BF2B11F460FF04C06F5F6D
:102350007F4F8F4F9F4F089557FD9058440F551F43
:1023600059F05F3F71F04795880F97FB991F61F017
:102370009F3F79F087950895121613061406551F8E
:10238000F2CF4695F1DF08C0161617061806991FFA
:10239000F1CF86957105610508940895E894BB27EF
:1023A00066277727CB0197F908958ADF08F48FEF26
:1023B00008950BD0C0CFB1DF28F0B6DF18F0952319
:1023C00009F0A2CFA7CF1124EACFC6DFA0F3959FD3
:1023D000D1F3950F50E0551F629FF001729FBB270C
:1023E000F00DB11D639FAA27F00DB11DAA1F649FB8
:1023F0006627B00DA11D661F829F2227B00DA11D6B
:10240000621F739FB00DA11D621F839FA00D611DF0
:10241000221F749F3327A00D611D231F849F600D11
:10242000211D822F762F6A2F11249F5750408AF04A
:10243000E1F088234AF0EE0FFF1FBB1F661F771FD6
:10244000881F91505040A9F79E3F510570F05CCF16
:10245000A6CF5F3FECF3983EDCF3869577956795C2
:10246000B795F795E7959F5FC1F7FE2B880F911DF4
:102470009695879597F9089523DF880B990B089512
:1024800097FB072E16F4009406D077FD08D035D0C0
:1024900007FC05D03EF4909581959F4F0895709567
:1024A00061957F4F0895A1E21A2EAA1BBB1BFD0167
:1024B0000DC0AA1FBB1FEE1FFF1FA217B307E40723
:1024C000F50720F0A21BB30BE40BF50B661F771F7B
:1024D000881F991F1A9469F760957095809590955B
:1024E0009B01AC01BD01CF010895EE0FFF1F881FB6
:1024F0008BBF0790F691E02D1994AA1BBB1B51E1ED
:1025000007C0AA1FBB1FA617B70710F0A61BB70B63
:10251000881F991F5A95A9F780959095BC01CD0108
:102520000895CF93DF938230910510F482E090E01C
:10253000E091FE04F091FF0420E030E0C0E0D0E044
:10254000309711F14081518148175907C0F0481761
:10255000590761F482819381209719F09B838A83C4
:102560002BC09093FF048093FE0426C021153105F3
:1025700019F04217530718F49A01BE01DF01EF0169
:102580000280F381E02DDCCF2115310509F1281BF4
:10259000390B2430310590F412968D919C9113974C
:1025A0006115710521F0FB019383828304C0909330
:1025B000FF048093FE04FD01329644C0FD01E20F4A
:1025C000F31F81939193225031092D933C933AC08C
:1025D0002091FC043091FD04232B41F42091120240
:1025E000309113023093FD042093FC0420911002DB
:1025F000309111022115310541F42DB73EB74091BC
:10260000140250911502241B350BE091FC04F0914B
:10261000FD04E217F307A0F42E1B3F0B2817390720
:1026200078F0AC014E5F5F4F2417350748F04E0F2E
:102630005F1F5093FD044093FC048193919302C06B
:10264000E0E0F0E0CF01DF91CF9108950F931F9369
:10265000CF93DF93009709F48CC0FC01329713826B
:1026600012820091FE041091FF040115110581F4FE
:1026700020813181820F931F2091FC043091FD0451
:102680002817390779F5F093FD04E093FC0471C035
:10269000D80140E050E0AE17BF0750F412962D91DC
:1026A0003C911397AD012115310509F1D901F3CF03
:1026B0009D01DA013383228360817181860F971F28
:1026C0008217930769F4EC0128813981260F371F9F
:1026D0002E5F3F4F318320838A819B819383828346
:1026E000452B29F4F093FF04E093FE0442C01396B7
:1026F000FC93EE931297ED01499159919E01240F9D
:10270000351FE217F30771F480819181840F951FC3
:10271000029611969C938E938281938113969C933B
:102720008E931297E0E0F0E0D80112968D919C9183
:102730001397009719F0F8018C01F6CF8D919C91B9
:1027400098012E5F3F4F820F931F2091FC04309120
:10275000FD042817390769F4309729F41092FF0413
:102760001092FE0402C0138212821093FD040093A3
:10277000FC04DF91CF911F910F91089581E090E0CB
:10278000F89400C011E0C7E2D1E000E005C0802F5E
:10279000FE01ABDE2196011DC832D10780E008079B
:0627A000B1F7F894FFCF31
:1027A600A804A804A804A804A804A804A804A804C3
:1027B600000000058000000000003B05A904D404C9
:1027C60081050505E304F70400000000DB01AC0108
:1027D6007701DA056E015A01DB05000000002004CE
:1027E600E702000000001F04EB02000000001E04C8
:1027F600E902526573657474696E67000D0A0070AC
:102806002076616C75653A00692076616C75653A6B
:1028160000642076616C75653A00636F6E74726F42
:102826006C3A00636F6E74726F6C202863293A00ED
:10283600726F746174696E673A20004865616469F5
:102846006E673A20004661696C656420746F20618A
:1028560075746F646574656374206779726F20742C
:1028660079706521006E616E00696E66006F76662E
:02287600000060
:00000001FF
