:1000000015C100000C94CE0A0C94A30A0C94780A33
:100010000C944D0A0C94220A0C94F7090C94CC0908
:100020000C94A10934C1000032C1000030C10000AD
:100030002EC100002CC100002AC1000028C1000010
:1000400026C1000024C1000022C1000020C1000020
:100050001EC100001CC100001AC100000C94570909
:1000600016C100000C94220B0C94F90A10C1000078
:100070000EC100000CC100000AC1000008C1000050
:1000800006C1000004C1000002C1000000C1000060
:10009000FEC00000FCC00000FAC0000070C20000FA
:1000A000F6C00000F4C00000F2C00000F0C0000084
:1000B000EEC00000ECC00000EAC00000E8C0000094
:1000C000E6C00000E4C00000E2C00000E0C00000A4
:1000D000DEC00000DCC00000DAC00000D8C00000B4
:1000E000D6C0000029072C071B071F07230763073B
:1000F000300734073A073E07420748074C075007C6
:10010000630756075A075E070000200023002600F9
:1001100029002C002F00320000010000030106011D
:10012000090100002100240027002A002D003000D2
:10013000330001010000040107010A010000220050
:10014000250028002B002E003100340002010000A1
:10015000050108010B010505050507050808080844
:10016000020202020A0A080804040404010101014F
:10017000010101010303030303030303040707074A
:100180000C0C0C0C0C0C0C0C0202020206060606EF
:10019000060606060B0B0B0B0B0B0B0B01021020BC
:1001A00020080810204010204080020102010804AD
:1001B0000201010204081020408080402010080441
:1001C000020180040201804020100804020108049A
:1001D00002010102040810204080010204081020DE
:1001E000408000000A0B02090C0D0E0807030401F1
:1001F00000000000000000000000000000000000FF
:1002000000000000000000000000000000001211CB
:1002100010000000000000000000000000000000CE
:1002200000000000000000005B0B580B11241FBEF3
:10023000CFEFD1E2DEBFCDBF00E00CBF12E0A0E007
:10024000B2E0E0EAF5E200E00BBF02C007900D92D9
:10025000AC3CB107D9F725E0ACECB2E001C01D928F
:10026000A831B207E1F711E0C5E1D1E000E006C036
:1002700021970109802FFE010E948611C431D10708
:1002800080E00807A9F70E94790C0C94BF12B8CE41
:10029000089580E090E0089585ED8093BC00809102
:1002A000BC0084FDFCCF10928E0308954091FA02A9
:1002B000262F30E0240F311D21323105DCF420914E
:1002C0008E032430C9F4FC0180E090E0861758F4D6
:1002D0003091FA022191DC01A852BD4FA30FB11D4C
:1002E0002C930196F3CF8091FA02680F6093FA0283
:1002F00080E0089581E0089582E00895CF92DF9232
:10030000EF92FF920F931F93CF93DF937C01262FE1
:10031000972F8A0180912503882391F0C62FD72F2C
:100320006E01C40ED51ECC15DD0569F06991D701AB
:10033000ED91FC910190F081E02DC7011995F3CF6B
:10034000642F822FB3DFC801DF91CF911F910F91EE
:10035000FF90EF90DF90CF900895CF93DF931F929F
:10036000CDB7DEB76983209125032223D1F02091F8
:100370004703203240F021E030E0FC013383228348
:1003800080E090E014C080912603E82FF0E0E95D62
:10039000FC4F998190838F5F80932603809347035E
:1003A00004C061E0CE01019681DF81E090E00F9012
:1003B000DF91CF910895823109F466C0B8F482309C
:1003C00069F1833009F073C07093CF026093CE025D
:1003D0008FEA92E0909303028093020280916A0078
:1003E000837F846080936A00ED9A5FC0843141F11D
:1003F000C8F1853109F05BC07093D1026093D002DF
:100400008AEA92E090930502809304028091690049
:100410008C7F816080936900E89A47C07093CD0219
:100420006093CC0284EB92E09093010280930002EF
:1004300080916A008C7F816080936A00EC9A35C05D
:100440007093D3026093D20285EA92E09093070200
:100450008093060280916900837F846080936900A5
:10046000E99A23C07093D5026093D40280EA92E0A7
:100470009093090280930802809169008F7C8061CB
:1004800080936900EA9A11C07093D7026093D602F4
:100490008BE992E090930B0280930A0280916900AD
:1004A0008F73806480936900EB9A81E0089580E007
:1004B0000895DC01ED91FD918081ED91FD91908198
:1004C000ED91FD916C9163708E2309F064609F2320
:1004D00009F06860E6E7F2E0E60FF11D65956595C5
:1004E0006D936D917D918D919D91099423C01AC05A
:1004F00012C016C010C01EC009C014C013C006C070
:1005000019C009C00DC007C00DC014C062507040B2
:10051000804090400BC0615070408040904006C0C9
:100520006E5F01C06F5F7F4F8F4F9F4F9E938E9383
:100530007E936E9308958091D6029091D702B9CFA1
:100540008091D4029091D502B4CF8091D202909143
:10055000D302AFCF8091D0029091D102AACF8091E7
:10056000CE029091CF02A5CF8091CC029091CD0286
:10057000A0CF0C9423120C9423120C9423121F92DC
:100580000F920FB60F9211240BB60F922F933F9339
:100590004F935F936F937F938F939F93AF93BF938B
:1005A000EF93FF938091B900887F803609F49CC057
:1005B00068F5883209F45BC090F4803109F454C0C6
:1005C00038F4882309F4F6C0883009F44DC0F5C02A
:1005D000883109F44CC0803209F45DC0EEC080342B
:1005E00009F468C048F4803309F455C0883309F031
:1005F000E4C080938C03D8C0803509F44FC088359F
:1006000009F45DC0883409F0D8C0D6C0883909F42F
:10061000C7C0A8F4883709F467C038F4883609F4ED
:1006200063C0803709F460C0C8C0883809F4B8C016
:10063000803909F45FC0803809F0BFC05BC0803BDF
:1006400009F486C038F4803A09F466C0883A09F49F
:100650007FC0B3C0803C09F4A7C0883C09F4A4C0A3
:10066000883B09F48AC0A9C08091890310C0909189
:100670008B0380918A03981770F5E0918B0381E0DA
:100680008E0F80938B03F0E0E859FC4F80818093BC
:10069000BB0085EC86C080938C038EC0E0918B03F9
:1006A00081E08E0F80938B038091BB00F0E0E859CE
:1006B000FC4F808390918B0380918A036EC0E09100
:1006C0008B0381E08E0F80938B038091BB00F0E061
:1006D000E859FC4F808380918D0381116DC081E0CA
:1006E0008093880384EA61C083E080938E03109234
:1006F0001E03CFCF80911E03803208F051C0E091DD
:100700001E0381E08E0F80931E038091BB00F0E0FA
:10071000E250FD4F8083BDCF85EC8093BC001092EA
:100720008E0380911E03803230F4E0911E03F0E0CE
:10073000E250FD4F108260911E0370E0E091FC02D8
:10074000F091FD028EEF92E0199510921E0335C0D4
:1007500084E080938E031092FB021092FA02E091E3
:10076000F802F091F90219958091FA02811105C001
:1007700081E08093FA021092D802E091FB0281E0BE
:100780008E0F8093FB02F0E0E852FD4F8081809352
:10079000BB009091FB028091FA02981708F479CF80
:1007A00085E88093BC0009C085EC8093BC00109262
:1007B0008E0303C010928C036FDDFF91EF91BF9108
:1007C000AF919F918F917F916F915F914F913F91E9
:1007D0002F910F900BBE0F900FBE0F901F9018958A
:1007E000089508950C942312089508950F931F936C
:1007F000CF93DF93EC01062F142F62E0802F77D385
:1008000062E0812F74D3802F90E0FC01EA5AFE4F02
:10081000E491F0E0EE0FFF1FE85FFE4FA591B49169
:10082000B983A883FC01E456FE4F84918C83212F69
:1008300030E0F901EA5AFE4F9491E92FF0E0EE0F13
:10084000FF1FE85FFE4F459154915B834A83F90196
:10085000E456FE4FE491ED831F82188619861A86AE
:10086000EBE3FFE13197F1F7EC91E82381E009F444
:1008700080E0FA0120819D81922309F082608E83BD
:10088000BE01802F98DD8B87BE01812F94DD2B85E3
:1008900090E0820F911D8B87DF91CF911F910F9177
:1008A000089590918E039111FCCF91E090938E0367
:1008B00090938D032FEF20938C0310928B03260FC0
:1008C00020938A039093890390918903880F892B41
:1008D0008093890380918803813061F410928803AA
:1008E000809189038093BB008091BC0083FDF8CF89
:1008F00085EC01C085EE8093BC0080918E03813031
:10090000E1F380918B03861710F460918B03A8E6C6
:10091000B3E028E433E0F9018E2F821B861718F428
:100920008D918193F9CF862F0895382F2091470319
:100930009091FF04213208F049C080918E0381110B
:10094000FCCF42E040938E0330938D033FEF309312
:100950008C0310928B0320938A03A7E2B3E048E64E
:1009600053E0FA013E2F341B321718F43D913193B6
:10097000F9CF1092890320918903990F922B9093BC
:10098000890390918803913061F4109288039091CB
:1009900089039093BB009091BC0093FDF8CF95EC38
:1009A00001C095EE9093BC0090918E039230E1F3DC
:1009B00090918C039F3F79F080918C03803241F0BD
:1009C00080918C03803331F084E005C081E003C066
:1009D00082E001C083E01092260310924703109238
:1009E000250308953FB7F89480911F039091200349
:1009F000A0912103B091220326B5A89B05C02F3FEB
:100A000019F00196A11DB11D3FBFBA2FA92F982F34
:100A10008827820F911DA11DB11DBC01CD0142E0AF
:100A2000660F771F881F991F4A95D1F70895009781
:100A300061F0FC0101900020E9F73197AF01481BFC
:100A4000590BBC018FE893E0C7C280E090E00895A5
:100A5000E0918F03F09190030190F081E02D682FD9
:100A60008FE893E019948F929F92AF92BF920F9369
:100A70001F93CF93DF93CDB7DEB7A1970FB6F8944E
:100A8000DEBF0FBECDBF19A2423008F44AE08E018E
:100A90000F5D1F4F842E912CA12CB12CA501940128
:100AA0000E946411E62FB901CA0101501109EA3010
:100AB00014F4E05D01C0E95CD801EC93232B242BF6
:100AC000252B61F7C801B3DFA1960FB6F894DEBFFE
:100AD0000FBECDBFDF91CF911F910F91BF90AF900F
:100AE0009F908F9008954F925F926F927F928F9216
:100AF0009F92AF92BF92CF92DF92EF92FF926B01E3
:100B00007C01B42E9B01AC010E946011882319F076
:100B10008AE592E027C026013701E89477F82FEFA5
:100B20003FEF4FE75FE7C301B2010E9460118111FF
:100B30000DC02FEF3FEF4FE75FE7C301B2010E9407
:100B4000AA0F18161CF48EE592E00CC02FEF3FEFB1
:100B50004FE75FE4C701B6010E94F91018167CF454
:100B600082E692E0FF90EF90DF90CF90BF90AF9041
:100B70009F908F907F906F905F904F9058CF2FEF06
:100B80003FEF4FE75FECC701B6010E94AA0F87FD58
:100B9000E7CF20E030E0A901C701B6010E94AA0F0B
:100BA00087FF08C08DE254DF4C01F7FAF094F7F8A4
:100BB000F09402C0812C912CA12C60E070E080E0C8
:100BC0009FE3AB1441F020E030E040E251E40E94AA
:100BD000AE0FA394F6CF9B01AC01C701B6010E94F2
:100BE000460F2B013C010E941B106B017C010E94EF
:100BF00047109B01AC01C301B2010E94450F2B01BC
:100C00003C014AE0C701B6012EDF7C01E80CF91C6B
:100C1000BB2021F08EE21CDFE80EF91EDB2CDD206C
:100C200019F120E030E040E251E4C301B2010E943A
:100C3000FD102B013C010E941B104B01A12CB12C7B
:100C40004AE0C501B4010FDFE80EF91EC501B40189
:100C50000E9447109B01AC01C301B2010E94450FE5
:100C60002B013C01DA94DBCFC701FF90EF90DF90BE
:100C7000CF90BF90AF909F908F907F906F905F903C
:100C80004F900895BF92CF92DF92EF92FF920F9311
:100C90001F93CF93DF938091410491E090932503BC
:100CA0008093FF04109226031092470368EA8CE2B7
:100CB00094E053DB81E039DE66E080914104F1DDB0
:100CC000E82E1092240380932303E5D26B01F12CCC
:100CD00026E0E216F104A4F48091420490914304CA
:100CE000892BB1F3D8D26C197D098091420490917F
:100CF00043048617970760F781E0809344042DC072
:100D00008CE294E0AAD2C82E8CE294E0A6D2B82E4F
:100D10008CE294E0A2D2E82E8CE294E09ED2D82E0F
:100D20008CE294E09AD2F82E8CE294E096D21B2DBD
:100D300000E00C291093390400933804DD2D20E0E5
:100D4000C22FCE29D0933B04C0933A04982F882712
:100D50008F2990933D0480933C04DF91CF911F91A4
:100D60000F91FF90EF90DF90CF90BF9008951F9369
:100D7000CF93DF93162FC8E3D4E0998521E0209329
:100D800025039093FF041092260310924703682FC7
:100D90008CE294E0E2DA612F8CE294E0DEDA81E02A
:100DA000C4DD8E83DF91CF911F910895CF93C82F1B
:100DB00081E080932503C093FF04109226031092D4
:100DC00047036FE08CE294E0C8DA81E0AEDD811188
:100DD0000DC061E08C2F65DD109224038093230306
:100DE000882321F08CE294E0CF9137C28FEF9FEF00
:100DF000CF910895362F90E0FC01EE51FE4F4491C3
:100E0000FC01E456FE4F2491FC01EA5AFE4F9491F6
:100E1000992309F46BC0442309F455C050E0FA014A
:100E20003197E231F10508F04EC08827EE58FF4FA8
:100E30008F4F0C948611809180008F7707C080912E
:100E400080008F7D03C080918000877F8093800029
:100E50003AC084B58F7702C084B58F7D84BD33C01E
:100E60008091B0008F7703C08091B0008F7D809318
:100E7000B00029C0809190008F7707C080919000CA
:100E80008F7D03C080919000877F809390001BC06E
:100E90008091A0008F7707C08091A0008F7D03C054
:100EA0008091A000877F8093A0000DC080912001D9
:100EB0008F7707C0809120018F7D03C08091200132
:100EC000877F80932001E92FF0E0EE0FFF1FE45CA5
:100ED000FE4FA591B4918FB7F894EC91311103C0F6
:100EE00020952E2301C02E2B2C938FBF0895CF93D6
:100EF000DF9390E0FC01E456FE4F2491FC01EA5A96
:100F0000FE4F8491882361F190E0880F991FFC01C6
:100F1000EE5DFE4FC591D491FC01E45CFE4FA591BE
:100F2000B491611109C09FB7F894888120958223FC
:100F30008883EC912E230BC0623061F49FB7F89444
:100F40003881822F809583238883EC912E2B2C93DC
:100F50009FBF06C08FB7F894E8812E2B28838FBFE0
:100F6000DF91CF9108958F929F92AF92BF92CF92CF
:100F7000DF92EF92FF926B017C0134DD4B015C014B
:100F8000C114D104E104F104E9F02CDDDC01CB0152
:100F900088199909AA09BB09883E9340A105B105A2
:100FA00078F321E0C21AD108E108F10888EE880E32
:100FB00083E0981EA11CB11CC114D104E104F1040A
:100FC00021F7DECFFF90EF90DF90CF90BF90AF90F2
:100FD0009F908F9008950895CF92DF92EF92FF92A5
:100FE0000F931F93CF93DF936C017A018B01C0E0C5
:100FF000D0E0CE15DF0589F0D8016D918D01D601C5
:10100000ED91FC910190F081E02DC6011995892B9D
:1010100011F47E0102C02196ECCFC701DF91CF9180
:101020001F910F91FF90EF90DF90CF900895FC01FA
:10103000538D448D252F30E0842F90E0821B930B3D
:10104000541710F0CF96089501970895FC01918DE3
:10105000828D981761F0828DDF01A80FB11D5D961A
:101060008C91928D9F5F9F73928F90E008958FEF88
:101070009FEF0895FC01918D828D981731F0828D3C
:10108000E80FF11D858D90E008958FEF9FEF089593
:10109000FC01918D228D892F90E0805C9F4F821BF7
:1010A00091098F73992708958FE893E0F1DF21E08C
:1010B000892B09F420E0822F0895FC01848DDF0143
:1010C000A80FB11DA35ABF4F2C91848D90E00196BB
:1010D0008F739927848FA689B7892C93A089B189AA
:1010E0008C9180648C93938D848D981306C00288B4
:1010F000F389E02D80818F7D80830895EF92FF92A8
:101100000F931F93CF93DF93EC0181E0888F9B8D2A
:101110008C8D981305C0E889F989808185FD23C0ED
:10112000F62E0B8D10E00F5F1F4F0F731127E02E6F
:101130008C8DE8120BC00FB607FCFACFE889F9894D
:10114000808185FFF5CFCE01B8DFF2CF8B8DFE0118
:10115000E80FF11DE35AFF4FF0820B8FEA89FB89FC
:101160008081806207C0EE89FF896083E889F98900
:1011700080818064808381E090E0DF91CF911F9136
:101180000F91FF90EF900895CF93DF93EC01888D3E
:101190008823C1F0EA89FB89808185FD05C0A88983
:1011A000B9898C9186FD0EC00FB607FCF5CF808102
:1011B00085FFF2CFA889B9898C9185FFEDCFCE014B
:1011C0007CDFE8CFDF91CF91089580E090E0892B1C
:1011D00019F06ADF811125C080E090E0892B41F091
:1011E00080E090E0892B21F00E94000081111CC05A
:1011F00080E090E0892B41F080E090E0892B21F0A5
:101200000E940000811113C080E090E0892BA1F0C2
:1012100080E090E0892B81F00E94000081110AC0DB
:1012200008950E940000D8CF0E940000E1CF0E94E4
:101230000000EACF0C94000008950895E091240383
:1012400080912303E81730F4F0E0E85BFC4F8081E5
:1012500090E008958FEF9FEF08959091240380917F
:101260002303981750F4E92FF0E0E85BFC4F20814E
:1012700030E09F5F9093240302C02FEF3FEFC9013E
:1012800008958091230390E020912403821B91090B
:1012900008950E94BB122FB7F894609110057091C9
:1012A000110580911205909113052FBF08951F928B
:1012B0000F920FB60F9211242F933F938F939F930A
:1012C000AF93BF938091100590911105A0911205E5
:1012D000B091130530910F0523E0230F2D3720F433
:1012E0000196A11DB11D05C026E8230F0296A11D80
:1012F000B11D20930F058093100590931105A093C5
:101300001205B093130580911F0390912003A091C3
:101310002103B09122030196A11DB11D80931F03EB
:1013200090932003A0932103B0932203BF91AF9128
:101330009F918F913F912F910F900FBE0F901F9013
:1013400018951F920F920FB60F9211240BB60F92A1
:101350002F933F934F935F936F937F938F939F93BD
:10136000AF93BF93EF93FF93E0910E02F0910F02C2
:101370001995FF91EF91BF91AF919F918F917F91BF
:101380006F915F914F913F912F910F900BBE0F90F6
:101390000FBE0F901F9018951F920F920FB60F92CD
:1013A00011240BB60F922F933F934F935F936F933C
:1013B0007F938F939F93AF93BF93EF93FF93E091AE
:1013C0000C02F0910D021995FF91EF91BF91AF9131
:1013D0009F918F917F916F915F914F913F912F914D
:1013E0000F900BBE0F900FBE0F901F9018951F927D
:1013F0000F920FB60F9211240BB60F922F933F93BB
:101400004F935F936F937F938F939F93AF93BF930C
:10141000EF93FF93E0910202F09103021995FF917F
:10142000EF91BF91AF919F918F917F916F915F915C
:101430004F913F912F910F900BBE0F900FBE0F90C9
:101440001F9018951F920F920FB60F9211240BB692
:101450000F922F933F934F935F936F937F938F934D
:101460009F93AF93BF93EF93FF93E0910002F091AE
:1014700001021995FF91EF91BF91AF919F918F91CB
:101480007F916F915F914F913F912F910F900BBE84
:101490000F900FBE0F901F9018951F920F920FB6CE
:1014A0000F9211240BB60F922F933F934F935F939C
:1014B0006F937F938F939F93AF93BF93EF93FF931C
:1014C000E0910A02F0910B021995FF91EF91BF9103
:1014D000AF919F918F917F916F915F914F913F91CC
:1014E0002F910F900BBE0F900FBE0F901F9018956D
:1014F0001F920F920FB60F9211240BB60F922F93DB
:101500003F934F935F936F937F938F939F93AF938B
:10151000BF93EF93FF93E0910802F09109021995B0
:10152000FF91EF91BF91AF919F918F917F916F91BB
:101530005F914F913F912F910F900BBE0F900FBE77
:101540000F901F9018951F920F920FB60F921124B3
:101550000BB60F922F933F934F935F936F937F93AD
:101560008F939F93AF93BF93EF93FF93E091060206
:10157000F09107021995FF91EF91BF91AF919F9163
:101580008F917F916F915F914F913F912F910F902C
:101590000BBE0F900FBE0F901F9018951F920F92C9
:1015A0000FB60F9211240BB60F922F933F934F93C8
:1015B0005F936F937F938F939F93AF93BF93EF93BB
:1015C000FF93E0910402F09105021995FF91EF91CC
:1015D000BF91AF919F918F917F916F915F914F914B
:1015E0003F912F910F900BBE0F900FBE0F901F9049
:1015F00018951F920F920FB60F9211240BB60F92EF
:101600002F933F934F935F936F937F938F939F930A
:10161000AF93BF93EF93FF938FE893E04EDDFF917D
:10162000EF91BF91AF919F918F917F916F915F915A
:101630004F913F912F910F900BBE0F900FBE0F90C7
:101640001F9018951F920F920FB60F9211240BB690
:101650000F922F938F939F93EF93FF93E0919F03AC
:10166000F091A0038081E091A503F091A60382FD93
:1016700012C090818091A8038F5F8F732091A9037E
:10168000821751F0E091A803F0E0E157FC4F958FED
:101690008093A80301C08081FF91EF919F918F916A
:1016A0002F910F900BBE0F900FBE0F901F901895AB
:1016B00085E494E096C8CF92DF92EF92FF92CF93A9
:1016C000DF93EFE8F3E01382128288EE93E0A0E06C
:1016D000B0E084839583A683B7832AE132E0318327
:1016E000208325EC30E03587248724EC30E03787F1
:1016F000268720EC30E0318B208B21EC30E0338BDF
:10170000228B22EC30E0358B248B26EC30E0378BBB
:10171000268B118E128E138E148EECE2F4E013825F
:10172000128284839583A683B7838CE292E09183AF
:101730008083E5E4F4E086E592E0918380838EE3A4
:1017400092E09383828325E030E03583248326E092
:1017500030E0378326839187808787E090E0938706
:10176000828788E090E09587848786E492E0978777
:10177000868780E090E0A8E8B1E4808B918BA28B13
:10178000B38B8DEC9CECACE4BDE3848B958BA68B8A
:10179000B78B80E090E0A0E7B1E4808F918FA28FBB
:1017A000B38F148E158E168E178E10A211A212A250
:1017B00013A215A214A243E062E08BEB94E016D8CA
:1017C00043E162E187EC94E011D887E492E5A4ED6F
:1017D000BAE38093D3049093D404A093D504B09338
:1017E000D6041092D9048BE18093D704C8EDD4E0DD
:1017F0008AE1888361E08BE17ADB60E0888177DBD6
:1018000080E2C82E8EE4D82EE12CF12CC092DA04AE
:10181000D092DB04E092DC04F092DD041092E0044C
:101820008DE18093DE04CFEDD4E08CE1888361E02C
:101830008DE15DDB60E088815ADBC092E104D092EB
:10184000E204E092E304F092E4041092E5041092C2
:10185000E6041092E7041092E8041092E904109252
:10186000EA041092EB041092EC041092ED04109232
:10187000EE041092EF041092F0048EE492E0909344
:10188000F2048093F1041092F3041092F404109285
:10189000F5041092F60489E190E09093F8048093A7
:1018A000F704C9EFD4E087E190E09983888361E091
:1018B00089E11DDB61E088811ADBE8E3F4E083E085
:1018C00090E09087878313861286148680E090E0EC
:1018D000A0EAB1E48093FB049093FC04A093FD0480
:1018E000B093FE04DF91CF91FF90EF90DF90CF9007
:1018F0000895789484B5826084BD84B5816084BD88
:1019000085B5826085BD85B5816085BD80916E009D
:10191000816080936E0010928100809181008260CE
:10192000809381008091810081608093810080910B
:1019300080008160809380008091B10084608093FA
:10194000B1008091B00081608093B00080919100DF
:1019500082608093910080919100816080939100DA
:10196000809190008160809390008091A1008260BE
:101970008093A1008091A10081608093A10080915B
:10198000A00081608093A0008091210182608093FB
:1019900021018091210181608093210180912001AA
:1019A00081608093200180917A00846080937A0026
:1019B00080917A00826080937A0080917A008160C1
:1019C00080937A0080917A00806880937A001092E8
:1019D000C100E0919F03F091A00382E08083E09139
:1019E0009B03F0919C031082E0919D03F0919E0374
:1019F00080E180831092A703E091A303F091A403F8
:101A000086E08083E091A103F091A2038081806150
:101A10008083E091A103F091A2038081886080839C
:101A2000E091A103F091A203808180688083E0911E
:101A3000A103F091A20380818F7D80831092240303
:101A400010922303109226031092470310928E03E4
:101A500081E080938D031092880361E084E1CAD90C
:101A600061E085E1C7D98091B9008E7F8093B9008C
:101A70008091B9008D7F8093B90088E48093B8008D
:101A800085E48093BC008BE691D98F3F2FEF9207BE
:101A900019F021E030E011C08AE688D98F3F2FEF9E
:101AA000920749F489E682D9833D910509F0D9C1AD
:101AB00021E030E0D3C120E030E0873D910509F41A
:101AC000C8C181E090E09093400480933F04AC0152
:101AD000415051094230510538F42130310511F09F
:101AE0002AE608C02BE606C02130310511F028E6B1
:101AF00001C029E620934104029719F460E089E3CC
:101B000036D960E083E233D96FE680E230D968EEFF
:101B100073E080E090E027DAC4E6D0E0C12CD12C5D
:101B20007601B0D86091380470913904072E000C0A
:101B3000880B990BAED29B01AC01C701B601A6D1AF
:101B40006B017C0169E170E080E090E00CDA2197A4
:101B500041F720E030E048EC52E4C701B601FED185
:101B6000609304057093050580930605909307051F
:101B700010920C05109208051092090510920A05A2
:101B800010920B0506EA1FEFB801012E000C880B1E
:101B9000990B7FD26B017C0186E692E00E941705CB
:101BA0006091F3047091F4048091F5049091F6042F
:101BB00042E00E9473058090F3049090F404A0909A
:101BC000F504B090F604A5019401C701B6015DD1FA
:101BD0002B013C0120E030E0A9010BD3181624F0C2
:101BE00077FA709477F8709426E636E646EE5FE36F
:101BF000C301B201B3D11AD2EB012196A501940120
:101C0000C701B601A7D187FF07C060E08091F90442
:101C1000F1D8A12CB12C02C061E0F8CFAC16BD0602
:101C200004F561E08091F704E5D86091FB047091C0
:101C3000FC048091FD049091FE04FDD194D960E0F4
:101C40008091F704D7D86091FB047091FC048091D7
:101C5000FD049091FE04EFD186D98FEFA81AB80A3F
:101C6000DDCF8090F3049090F404A090F504B09040
:101C7000F604A5019401C701B6016CD12E01DD0F58
:101C80006608770887FF0EC0C301B20102D226E6BC
:101C900036E646EE5FE3B1D29B01AC01C501B4016B
:101CA000F4D00DC0C301B201F4D126E636E646EE0B
:101CB0005FE3A3D29B01AC01C501B401E7D06093FF
:101CC000F3047093F4048093F5049093F60488E78A
:101CD00092E00E9417056091F3047091F4048091E2
:101CE000F5049091F60442E00E9473058AE892E0C0
:101CF0000E94170577FE0CC08DE20E94280566271A
:101D00007727CB0164197509860997094AE003C052
:101D10004AE0C301B2010E94330584E992E00E94C7
:101D2000170542E0C701B6010E9473058FE992E0F2
:101D30000E94170564EF71E080E090E014D9015F24
:101D40001F4F0936110509F01FCF60E271EA87E0E5
:101D500090E009D9A0DA00910D0510910E05012E31
:101D6000000C220B330BDC01CB01801B910BA20B6F
:101D7000B30B8897A105B10568F38DDA70930E0552
:101D800060930D0580910C05882309F460C082EAF8
:101D900092E00E9417050E944206609138047091FB
:101DA0003904CB0177FF04C088279927861B970B3E
:101DB000853F91400CF440C0072E000C880B990B16
:101DC00068D1209104053091050540910605509198
:101DD00007055BD020E030E040E252E40ED227EF6E
:101DE0003CEC42E157E309D26B017C019B01AC0161
:101DF000609108057091090580910A0590910B0585
:101E000045D0609308057093090580930A05909367
:101E10000B05A70196016091000570910105809165
:101E200002059091030532D060930005709301057F
:101E30008093020590930305609108057091090550
:101E400080910A0590910B0542E00E947305BDD96F
:101E500099CE82E090E037CE20E030E080E090E064
:101E600032CE88E60E94D606833D9105A9F38CEA1E
:101E700092E00E9417058FE992E00E94170568EC36
:101E800070E080E090E06FD8FECD5058BB27AA27C5
:101E90000ED075C166D130F06BD120F031F49F3F88
:101EA00011F41EF45BC10EF4E095E7FB51C1E92F7C
:101EB00077D180F3BA17620773078407950718F084
:101EC00071F49EF58FC10EF4E0950B2EBA2FA02D64
:101ED0000B01B90190010C01CA01A0011124FF27D7
:101EE000591B99F0593F50F4503E68F11A16F040D2
:101EF000A22F232F342F4427585FF3CF46953795D1
:101F00002795A795F0405395C9F77EF41F16BA0B95
:101F1000620B730B840BBAF09150A1F0FF0FBB1F43
:101F2000661F771F881FC2F70EC0BA0F621F731F8C
:101F3000841F48F4879577956795B795F7959E3FE9
:101F400008F0B3CF9395880F08F09927EE0F979577
:101F500087950895D9D008F481E008950CD00FC179
:101F600007D140F0FED030F021F45F3F19F0F0C00F
:101F7000511139C1F3C014D198F39923C9F35523F2
:101F8000B1F3951B550BBB27AA276217730784076C
:101F900038F09F5F5F4F220F331F441FAA1FA9F322
:101FA00033D00E2E3AF0E0E830D091505040E69514
:101FB000001CCAF729D0FE2F27D0660F771F881F75
:101FC000BB1F261737074807AB07B0E809F0BB0B64
:101FD000802DBF01FF2793585F4F2AF09E3F510588
:101FE00068F0B6C000C15F3FECF3983EDCF3869525
:101FF00077956795B795F7959F5FC9F7880F911DFE
:102000009695879597F90895E1E0660F771F881FE9
:10201000BB1F621773078407BA0720F0621B730B9C
:10202000840BBA0BEE1F88F7E095089504D06894EE
:10203000B111D9C00895BCD088F09F5790F0B92F46
:102040009927B751A0F0D1F0660F771F881F991F0D
:102050001AF0BA95C9F712C0B13081F0C3D0B1E01F
:102060000895C0C0672F782F8827B85F39F0B93F2F
:10207000CCF3869577956795B395D9F73EF490950F
:102080008095709561957F4F8F4F9F4F0895E8948D
:1020900009C097FB3EF490958095709561957F4FB0
:1020A0008F4F9F4F9923A9F0F92F96E9BB2793955E
:1020B000F695879577956795B795F111F8CFFAF46E
:1020C000BB0F11F460FF1BC06F5F7F4F8F4F9F4F9F
:1020D00016C0882311F096E911C0772321F09EE8FD
:1020E000872F762F05C0662371F096E8862F70E063
:1020F00060E02AF09A95660F771F881FDAF7880F3D
:102100009695879597F90895990F0008550FAA0B92
:10211000E0E8FEEF16161706E807F907C0F01216FA
:102120001306E407F50798F0621B730B840B950BFD
:1021300039F40A2661F0232B242B252B21F4089552
:102140000A2609F4A140A6958FEF811D811D0895EF
:1021500097F99F6780E870E060E008959FEF80EC5A
:10216000089500240A9416161706180609060895FD
:1021700000240A9412161306140605060895092E63
:102180000394000C11F4882352F0BB0F40F4BF2BD2
:1021900011F460FF04C06F5F7F4F8F4F9F4F089512
:1021A00057FD9058440F551F59F05F3F71F0479508
:1021B000880F97FB991F61F09F3F79F087950895ED
:1021C000121613061406551FF2CF4695F1DF08C00C
:1021D000161617061806991FF1CF86957105610529
:1021E00008940895E894BB2766277727CB0197F9D1
:1021F00008958ADF08F48FEF08950BD0C0CFB1DFC8
:1022000028F0B6DF18F0952309F0A2CFA7CF11244C
:10221000EACFC6DFA0F3959FD1F3950F50E0551F8D
:10222000629FF001729FBB27F00DB11D639FAA272B
:10223000F00DB11DAA1F649F6627B00DA11D661F7A
:10224000829F2227B00DA11D621F739FB00DA11D9B
:10225000621F839FA00D611D221F749F3327A00D55
:10226000611D231F849F600D211D822F762F6A2FF1
:1022700011249F5750408AF0E1F088234AF0EE0F76
:10228000FF1FBB1F661F771F881F91505040A9F783
:102290009E3F510570F05CCFA6CF5F3FECF3983EB8
:1022A000DCF3869577956795B795F795E7959F5FEA
:1022B000C1F7FE2B880F911D9695879597F9089584
:1022C00023DF880B990B0895A1E21A2EAA1BBB1BD2
:1022D000FD010DC0AA1FBB1FEE1FFF1FA217B307F2
:1022E000E407F50720F0A21BB30BE40BF50B661F08
:1022F000771F881F991F1A9469F7609570958095CC
:1023000090959B01AC01BD01CF010895EE0FFF1F19
:10231000881F8BBF0790F691E02D1994CF93DF9320
:102320008230910510F482E090E0E0911605F09182
:10233000170520E030E0C0E0D0E0309711F1408197
:10234000518148175907C0F04817590761F4828135
:102350009381209719F09B838A832BC09093170554
:102360008093160526C02115310519F04217530731
:1023700018F49A01BE01DF01EF010280F381E02D24
:10238000DCCF2115310509F1281B390B243031052B
:1023900090F412968D919C9113976115710521F01F
:1023A000FB019383828304C09093170580931605E5
:1023B000FD01329644C0FD01E20FF31F819391931A
:1023C000225031092D933C933AC02091140530914D
:1023D0001505232B41F42091120230911302309302
:1023E000150520931405209110023091110221153A
:1023F000310541F42DB73EB74091140250911502BA
:10240000241B350BE0911405F0911505E217F30735
:10241000A0F42E1B3F0B2817390778F0AC014E5F54
:102420005F4F2417350748F04E0F5F1F5093150577
:10243000409314058193919302C0E0E0F0E0CF0156
:10244000DF91CF9108950F931F93CF93DF93009760
:1024500009F48CC0FC013297138212820091160598
:10246000109117050115110581F420813181820F2A
:10247000931F20911405309115052817390779F518
:10248000F0931505E093140571C0D80140E050E0C9
:10249000AE17BF0750F412962D913C911397AD01E2
:1024A0002115310509F1D901F3CF9D01DA013383FB
:1024B000228360817181860F971F8217930769F4C9
:1024C000EC0128813981260F371F2E5F3F4F318362
:1024D00020838A819B8193838283452B29F4F09307
:1024E0001705E093160542C01396FC93EE931297DE
:1024F000ED01499159919E01240F351FE217F30711
:1025000071F480819181840F951F029611969C939E
:102510008E938281938113969C938E931297E0E021
:10252000F0E0D80112968D919C911397009719F0C5
:10253000F8018C01F6CF8D919C9198012E5F3F4F51
:10254000820F931F20911405309115052817390724
:1025500069F4309729F4109217051092160502C0FD
:10256000138212821093150500931405DF91CF9109
:102570001F910F91089581E090E0F89400C011E060
:10258000C5E1D1E000E005C0802FFE01BFDE21964D
:10259000011DC631D10780E00807B1F7F894FFCFDD
:1025A000EB07EB07EB07EB07EB07EB07EB07EB079B
:1025B000000018058000000000007E08EC071708E6
:1025C000C408480826083A0800000000AD017E0152
:1025D00049011D0941092D091E0900000000F403ED
:1025E000BD0200000000F503B90200000000F00386
:1025F000BB0200000000F103F2036E616E00696E21
:1026000066006F766600496E697469616C20686562
:102610006164696E672C20002C2066696E616C20F5
:1026200068656164696E672C20002C2053746570A6
:10263000732C20002C204465677265652C20000DEA
:102640000A0048656164696E672C20004661696C08
:10265000656420746F206175746F6465746563745C
:0C266000206779726F207479706521008A
:00000001FF
