:1000000027C100000C94020D0C94D70C0C94AC0C7E
:100010000C94810C0C94560C0C942B0C0C94000C2E
:100020000C94D50B46C1000044C1000042C1000041
:1000300040C100003EC100003CC100003AC10000C8
:1000400038C1000036C1000034C1000032C10000D8
:1000500030C100002EC100002CC100000C948B0B9D
:1000600028C100000C94570D0C942D0D22C10000E6
:1000700020C100001EC100001CC100001AC1000008
:1000800018C1000016C1000014C1000012C1000018
:1000900010C100000EC100000CC1000008C3000028
:1000A00008C1000006C1000004C1000002C1000038
:1000B00000C10000FEC00000FCC00000FAC000004B
:1000C000F8C00000F6C00000F4C00000F2C000005C
:1000D000F0C00000EEC00000ECC00000EAC000006C
:1000E000E8C00000F408F708E608EA08EE082E0960
:1000F000FB08FF08050909090D09130917091B0960
:100100002E09210925092909A509AA09AF09B90953
:10011000C3093C0ACD09D509DD09E709F109FB0945
:100120000A0A140A3C0A1E0A280A320A00002000A1
:100130002300260029002C002F00320000010000BF
:1001400003010601090100002100240027002A0004
:100150002D003000330001010000040107010A01F5
:1001600000002200250028002B002E003100340062
:1001700002010000050108010B0105050505070541
:1001800008080808020202020A0A08080404040413
:10019000010101010101010103030303030303033F
:1001A000040707070C0C0C0C0C0C0C0C02020202CE
:1001B00006060606060606060B0B0B0B0B0B0B0BB7
:1001C0000102102020080810204010204080020169
:1001D000020108040201010204081020408080404E
:1001E000201008040201800402018040201008044D
:1001F00002010804020101020408102040800102EB
:1002000004081020408000000A0B02090C0D0E08A3
:1002100007030401000000000000000000000000CF
:1002200000000000000000000000000000000000CE
:10023000000012111000000000000000000000008B
:10024000000000000000000000000000910D8D0D76
:1002500011241FBECFEFD1E2DEBFCDBF00E00CBF47
:1002600012E0A0E0B2E0E8E7F9E200E00BBF02C074
:1002700007900D92AA3AB107D9F724E0AAEAB2E0B2
:1002800001C01D92A83FB207E1F711E0C7E2D1E03B
:1002900000E006C021970109802FFE010E945E1335
:1002A000C632D10780E00807A9F70E94B10E0C946E
:1002B000AB14A6CE80E090E0892B21F00E940B0BBE
:1002C000811125C080E090E0892B41F080E090E032
:1002D000892B21F00E94000081111CC080E090E079
:1002E000892B41F080E090E0892B21F00E940000F2
:1002F000811113C080E090E0892BA1F080E090E0B4
:10030000892B81F00E94000081110AC008950E948B
:100310000000D8CF0E940000E1CF0E940000EACF89
:100320000C94000008950895E091FE028091FD0272
:10033000E81730F4F0E0EE5DFC4F808190E0089526
:100340008FEF9FEF08959091FE028091FD02981724
:1003500050F4E92FF0E0EE5DFC4F208130E09F5F2C
:100360009093FE0202C02FEF3FEFC90108958091E4
:10037000FD0290E02091FE02821B910908950895EC
:1003800080E090E0089585ED8093BC008091BC00F2
:1003900084FDFCCF1092680308954091D802262F67
:1003A00030E0240F311D21323105DCF42091680347
:1003B0002430C9F4FC0180E090E0861758F43091B5
:1003C000D8022191DC01AA54BD4FA30FB11D2C937B
:1003D0000196F3CF8091D802680F6093D80280E035
:1003E000089581E0089582E00895CF92DF92EF9220
:1003F000FF920F931F93CF93DF937C01262F972FAC
:100400008A018091FF02882391F0C62FD72F6E01B9
:10041000C40ED51ECC15DD0569F06991D701ED91AB
:10042000FC910190F081E02DC7011995F3CF642F65
:10043000822FB3DFC801DF91CF911F910F91FF9001
:10044000EF90DF90CF900895CF93DF931F92CDB7B9
:10045000DEB769832091FF022223D1F0209121038E
:10046000203240F021E030E0FC013383228380E041
:1004700090E014C080910003E82FF0E0EF5FFC4FA4
:10048000998190838F5F809300038093210304C040
:1004900061E0CE01019681DF81E090E00F90DF9175
:1004A000CF910895823109F466C0B8F4823069F1C1
:1004B000833009F073C07093AD026093AC0286E2A2
:1004C00093E0909303028093020280916A00837FFD
:1004D000846080936A00ED9A5FC0843141F1C8F175
:1004E000853109F05BC07093AF026093AE0281E288
:1004F00093E09093050280930402809169008C7FC1
:10050000816080936900E89A47C07093AB02609362
:10051000AA028BE293E09093010280930002809103
:100520006A008C7F816080936A00EC9A35C070937A
:10053000B1026093B0028CE193E090930702809344
:10054000060280916900837F846080936900E99A44
:1005500023C07093B3026093B20287E193E090935B
:10056000090280930802809169008F7C80618093EA
:100570006900EA9A11C07093B5026093B40282E1F7
:1005800093E090930B0280930A02809169008F732D
:10059000806480936900EB9A81E0089580E008957B
:1005A000DC01ED91FD918081ED91FD919081ED91C6
:1005B000FD916C9163708E2309F064609F2309F0B4
:1005C0006860EDEEF2E0E60FF11D659565956D93BF
:1005D0006D917D918D919D91099423C01AC012C097
:1005E00016C010C01EC009C014C013C006C019C078
:1005F00009C00DC007C00DC014C0625070408040DB
:1006000090400BC0615070408040904006C06E5FCB
:1006100001C06F5F7F4F8F4F9F4F9E938E937E934E
:100620006E9308958091B4029091B502B9CF8091F4
:10063000B2029091B302B4CF8091B0029091B10216
:10064000AFCF8091AE029091AF02AACF8091AC0261
:100650009091AD02A5CF8091AA029091AB02A0CF5C
:100660000C940F140C940F140C940F14FC01848D33
:10067000DF01A80FB11DA35ABF4F2C91848D90E0CC
:1006800001968F739927848FA689B7892C93A089A7
:10069000B1898C9180648C93938D848D981306C05E
:1006A0000288F389E02D80818F7D808308951F92D9
:1006B0000F920FB60F9211240BB60F922F933F9308
:1006C0004F935F936F937F938F939F93AF93BF935A
:1006D000EF93FF938091B900887F803609F49CC026
:1006E00068F5883209F45BC090F4803109F454C095
:1006F00038F4882309F4F6C0883009F44DC0F5C0F9
:10070000883109F44CC0803209F45DC0EEC08034F9
:1007100009F468C048F4803309F455C0883309F0FF
:10072000E4C080936603D8C0803509F44FC0883593
:1007300009F45DC0883409F0D8C0D6C0883909F4FE
:10074000C7C0A8F4883709F467C038F4883609F4BC
:1007500063C0803709F460C0C8C0883809F4B8C0E5
:10076000803909F45FC0803809F0BFC05BC0803BAE
:1007700009F486C038F4803A09F466C0883A09F46E
:100780007FC0B3C0803C09F4A7C0883C09F4A4C072
:10079000883B09F48AC0A9C08091630310C090917E
:1007A000650380916403981770F5E091650381E01B
:1007B0008E0F80936503F0E0EE5BFC4F80818093A9
:1007C000BB0085EC86C0809366038EC0E091650314
:1007D00081E08E0F809365038091BB00F0E0EE5BBB
:1007E000FC4F808390916503809164036EC0E0911B
:1007F000650381E08E0F809365038091BB00F0E07C
:10080000EE5BFC4F80838091670381116DC081E0B6
:100810008093620384EA61C083E08093680310924E
:10082000FC02CFCF8091FC02803208F051C0E091F1
:10083000FC0281E08E0F8093FC028091BB00F0E00F
:10084000E452FD4F8083BDCF85EC8093BC001092B5
:1008500068038091FC02803230F4E091FC02F0E009
:10086000E452FD4F10826091FC0270E0E091DA02E8
:10087000F091DB028CED92E019951092FC0235C0EC
:1008800084E0809368031092D9021092D802E0911C
:10089000D602F091D70219958091D802811105C036
:1008A00081E08093D8021092B602E091D90281E0F3
:1008B0008E0F8093D902F0E0EA54FD4F808180933F
:1008C000BB009091D9028091D802981708F479CF93
:1008D00085E88093BC0009C085EC8093BC00109231
:1008E000680303C0109266034EDDFF91EF91BF9144
:1008F000AF919F918F917F916F915F914F913F91B8
:100900002F910F900BBE0F900FBE0F901F90189558
:100910001092DA041092DB041092DC041092DD04D1
:1009200081E08093DE048AE592E031D184E692E0B2
:100930002EC1089508950C940F14089508950F93EF
:100940001F93CF93DF93EC01062F142F62E0802FCB
:1009500099D462E0812F96D4802F90E0FC01E65874
:10096000FE4FE491F0E0EE0FFF1FE45DFE4FA59116
:10097000B491B983A883FC01E054FE4F84918C8329
:10098000212F30E0F901E658FE4F9491E92FF0E075
:10099000EE0FFF1FE45DFE4F459154915B834A8348
:1009A000F901E054FE4FE491ED831F821886198609
:1009B0001A86EBE3FFE13197F1F7EC91E82381E050
:1009C00009F480E0FA0120819D81922309F0826080
:1009D0008E83BE01802F66DD8B87BE01812F62DD95
:1009E0002B8590E0820F911D8B87DF91CF911F9116
:1009F0000F9108950F931F93CF93DF938C01EB0119
:100A00006F3F710509F03CF461308FEF780764F0B7
:100A100077FF03C00BC0CFEFD0E0BE01F8018281A9
:100A20006DD460E070E00BC0C1E0DFEF60E070E02B
:100A3000F801828163D4662777276C1B7D0BF80150
:100A40008481DF91CF911F910F9158C490916803D9
:100A50009111FCCF91E090936803909367032FEF7F
:100A60002093660310926503260F209364039093EE
:100A7000630390916303880F892B809363038091B4
:100A80006203813061F4109262038091630380936A
:100A9000BB008091BC0083FDF8CF85EC01C085EEE2
:100AA0008093BC00809168038130E1F380916503FD
:100AB000861710F460916503A2E4B3E022E233E00C
:100AC000F9018E2F821B861718F48D918193F9CF2F
:100AD000862F0895382F209121039091D50421323B
:100AE00008F049C0809168038111FCCF42E0409337
:100AF0006803309367033FEF3093660310926503FA
:100B000020936403A1E0B3E042E453E0FA013E2FF6
:100B1000341B321718F43D913193F9CF10926303CF
:100B200020916303990F922B90936303909162033A
:100B3000913061F410926203909163039093BB0033
:100B40009091BC0093FDF8CF95EC01C095EE909389
:100B5000BC00909168039230E1F3909166039F3F4F
:100B600079F080916603803241F080916603803392
:100B700031F084E005C081E003C082E001C083E081
:100B800010920003109221031092FF020895009723
:100B900061F0FC0101900020E9F73197AF01481B9B
:100BA000590BBC0189E693E0CEC480E090E0089543
:100BB000E0916903F0916A030190F081E02D682FC4
:100BC00089E693E019948F929F92AF92BF920F9310
:100BD0001F93CF93DF93CDB7DEB7A1970FB6F894ED
:100BE000DEBF0FBECDBF19A2423008F44AE08E012D
:100BF0000F5D1F4F842E912CA12CB12CA5019401C7
:100C00000E943C13E62FB901CA0101501109EA30D4
:100C100014F4E05D01C0E95CD801EC93232B242B94
:100C2000252B61F7C801B3DFA1960FB6F894DEBF9C
:100C30000FBECDBFDF91CF911F910F91BF90AF90AD
:100C40009F908F9008954F925F926F927F928F92B4
:100C50009F92AF92BF92CF92DF92EF92FF926B0181
:100C60007C019B01AC010E942513882319F087E6C3
:100C700092E01AC046015701E894B7F82FEF3FEF12
:100C80004FE75FE7C501B4010E94251381110FC032
:100C90002FEF3FEF4FE75FE7C501B4010E946F11EF
:100CA00018162CF48BE692E072DF7C017AC02FEFED
:100CB0003FEF4FE75FE4C701B6010E94BE1218166E
:100CC0001CF48FE692E0F0CF2FEF3FEF4FE75FECA1
:100CD000C701B6010E946F1187FDF3CF20E030E01D
:100CE000A901C701B6010E946F1187FF08C08DE2FC
:100CF0005FDF5C01F7FAF094F7F8F09402C0A12CE2
:100D0000B12C2AE037ED43EA5BE3C701B6010E944C
:100D10000B112B013C010E94E0116B017C010E9430
:100D20000C129B01AC01C301B2010E940A112B01FC
:100D30003C014AE0C701B60146DF7C01EA0CFB1C1E
:100D40008EE236DFE80EF91E20E030E040E251E4AA
:100D5000C301B2010E94C2122B013C010E94E011AA
:100D60004B01A12CB12C4AE0C501B4012CDFE80EE7
:100D7000F91EC501B4010E940C129B01AC01C30114
:100D8000B2010E940A1120E030E040E251E40E94EA
:100D9000C2120E94E01180E090E04AE014DFE80E09
:100DA000F91E84E692E0F3DE8E0D9F1DFF90EF901A
:100DB000DF90CF90BF90AF909F908F907F906F907B
:100DC0005F904F9008954F925F926F927F928F92B3
:100DD0009F92AF92BF92CF92DF92EF92FF920F93CA
:100DE0001F93CF93DF9300D01F92CDB7DEB7FC01E6
:100DF00069017A018090C7049090C804A090C9044A
:100E0000B090CA04611103C02FEF3FEF02C021E090
:100E100030E0E29FC001E39F900DF29F900D1124FE
:100E2000BC01990F880B990B0E940E129B01AC011B
:100E3000C501B4010E940B110E94DB11072E000CAA
:100E4000880B990B0E940E122B013C01A701960101
:100E50000E940A116B017C0120913F0430914004F3
:100E600040914104509142040E940A1169837A839F
:100E70008B839C83C0923F04D0924004E092410453
:100E8000F09242048091430490914404FC01EE0FDF
:100E9000FF1FEE0FFF1FE95CFB4FC686D786E08A77
:100EA000F18A019664E170E00E9429139093440452
:100EB0008093430405E414E0812C912C5401F80143
:100EC00021913191419151918F01C501B4010E944D
:100ED0000B114B015C01F4E005391F0781F72091EC
:100EE0002F04309130044091310450913204C701F5
:100EF000B6010E94C2126B017C0120913304309133
:100F000034044091350450913604C501B4010E9467
:100F1000C2129B01AC01C701B6010E940B116B010B
:100F20007C0120913704309138044091390450916C
:100F30003A0469817A818B819C810E94C2129B0153
:100F4000AC01C701B6010E940B116B017C0120E0CE
:100F500030E04FE253E40E94BE1218168CF020E0FD
:100F600030E04FE253ECC701B6010E946F1187FFDA
:100F70000DC0C12CD12C9FE2E92E93ECF92E06C0B6
:100F8000C12CD12C8FE2E82E83E4F82E83E792E087
:100F9000FEDDC701B60157DEC701B6010E94DB11B5
:100FA0006B017C01CB0177FF04C0882799278C193E
:100FB0009D09459754F0B60187E294E01BDDB60128
:100FC00081E294E017DD80E013C060E070E087E22A
:100FD00094E010DD60E070E081E294E00BDD40928F
:100FE000C7045092C8046092C9047092CA0481E098
:100FF0000F900F900F900F90DF91CF911F910F9155
:10100000FF90EF90DF90CF90BF90AF909F908F9028
:101010007F906F905F904F900895BF92CF92DF9234
:10102000EF92FF920F931F93CF93DF9380911B0456
:1010300091E09093FF028093D504109200031092E8
:10104000210368EA86E094E0FFD981E043DD66E0B1
:1010500080911B04FBDCE82E1092FE028093FD02BF
:101060004ED36B01F12C26E0E216F104A4F480913A
:101070001C0490911D04892BB1F341D36C197D0997
:1010800080911C0490911D048617970760F781E0FA
:1010900080931E042DC086E094E055D9C82E86E0CA
:1010A00094E051D9B82E86E094E04DD9E82E86E040
:1010B00094E049D9D82E86E094E045D9F82E86E010
:1010C00094E041D91B2D00E00C29109313040093E8
:1010D0001204DD2D20E0C22FCE29D0931504C09339
:1010E0001404982F88278F2990931704809316044F
:1010F000DF91CF911F910F91FF90EF90DF90CF90F4
:10110000BF9008951F93CF93DF93162FC2E1D4E0D1
:10111000998521E02093FF029093D504109200035B
:1011200010922103682F86E094E08ED9612F86E02B
:1011300094E08AD981E0CEDC8E83DF91CF911F913C
:101140000895CF93C82F81E08093FF02C093D50408
:1011500010920003109221036FE086E094E074D9AE
:1011600081E0B8DC81110DC061E08C2F6FDC109242
:10117000FE028093FD02882321F086E094E0CF9167
:10118000E2C88FEF9FEFCF910895362F90E0FC01DA
:10119000EA5FFD4F4491FC01E054FE4F2491FC01B5
:1011A000E658FE4F9491992309F46BC0442309F447
:1011B00055C050E0FA013197E231F10508F04EC018
:1011C0008827EE58FF4F8F4F0C945E13809180005C
:1011D0008F7707C0809180008F7D03C08091800051
:1011E000877F809380003AC084B58F7702C084B532
:1011F0008F7D84BD33C08091B0008F7703C0809114
:10120000B0008F7D8093B00029C0809190008F77CF
:1012100007C0809190008F7D03C080919000877FF0
:10122000809390001BC08091A0008F7707C08091B1
:10123000A0008F7D03C08091A000877F8093A000D5
:101240000DC0809120018F7707C0809120018F7D94
:1012500003C080912001877F80932001E92FF0E077
:10126000EE0FFF1FE05AFE4FA591B4918FB7F8948F
:10127000EC91311103C020952E2301C02E2B2C930D
:101280008FBF0895CF93DF9390E0FC01E054FE4FB1
:101290002491FC01E658FE4F8491882361F190E08F
:1012A000880F991FFC01EA5BFE4FC591D491FC01A8
:1012B000E05AFE4FA591B491611109C09FB7F8940F
:1012C0008881209582238883EC912E230BC0623085
:1012D00061F49FB7F8943881822F809583238883A7
:1012E000EC912E2B2C939FBF06C08FB7F894E8810A
:1012F0002E2B28838FBFDF91CF9108951F93CF931B
:10130000DF93182FEB0161E0BDDF209711F460E05F
:1013100004C0CF3FD10531F461E0812FDF91CF913F
:101320001F9133CFE12FF0E0EA5FFD4FE4914E2FA4
:1013300050E0FA013197E231F10508F09DC08827AD
:10134000EC57FF4F8F4F0C945E1384B5806884BDBB
:10135000C7BD97C084B5806284BDC8BD92C080916E
:101360008000806880938000D0938900C0938800BB
:1013700088C080918000806280938000D0938B0031
:10138000C0938A007EC08091800088608093800036
:10139000D0938D00C0938C0074C08091B0008068A1
:1013A0008093B000C093B3006CC08091B0008062A5
:1013B0008093B000C093B40064C0809190008068B6
:1013C00080939000D0939900C09398005AC0809168
:1013D0009000806280939000D0939B00C0939A000D
:1013E00050C080919000886080939000D0939D00C1
:1013F000C0939C0046C08091A00080688093A000AC
:101400008091A0008F7B8093A000D093A900C0930F
:10141000A80037C08091A00080628093A000D09384
:10142000AB00C093AA002DC08091A000886080937B
:10143000A000D093AD00C093AC0023C080912001E8
:10144000806880932001D0932901C093280119C09E
:1014500080912001806280932001D0932B01C09362
:101460002A010FC080912001886080932001D093D1
:101470002D01C0932C0105C0C038D1050CF04CCF14
:1014800046CFDF91CF911F9108953FB7F894809197
:10149000F0049091F104A091F204B091F30426B508
:1014A000A89B05C02F3F19F00196A11DB11D3FBF9C
:1014B000BA2FA92F982F8827820F911DA11DB11D2A
:1014C000BC01CD0142E0660F771F881F991F4A9526
:1014D000D1F708958F929F92AF92BF92CF92DF92F1
:1014E000EF92FF926B017C01D0DF4B015C01C114D4
:1014F000D104E104F104E9F0C8DFDC01CB01881973
:101500009909AA09BB09883E9340A105B10578F362
:1015100021E0C21AD108E108F10888EE880E83E0C4
:10152000981EA11CB11CC114D104E104F10421F7DF
:10153000DECFFF90EF90DF90CF90BF90AF909F9065
:101540008F9008950895CF92DF92EF92FF920F93BC
:101550001F93CF93DF936C017A018B01C0E0D0E041
:10156000CE15DF0589F0D8016D918D01D601ED9181
:10157000FC910190F081E02DC6011995892B11F4A1
:101580007E0102C02196ECCFC701DF91CF911F9160
:101590000F91FF90EF90DF90CF900895FC01538D55
:1015A000448D252F30E0842F90E0821B930B54173D
:1015B00010F0CF96089501970895FC01918D828DCA
:1015C000981761F0828DDF01A80FB11D5D968C9197
:1015D000928D9F5F9F73928F90E008958FEF9FEFA2
:1015E0000895FC01918D828D981731F0828DE80F5E
:1015F000F11D858D90E008958FEF9FEF0895FC0118
:10160000918D228D892F90E0805C9F4F821B9109E4
:101610008F739927089589E693E0F1DF21E0892B04
:1016200009F420E0822F08950E94A714EF92FF9200
:101630000F931F93CF93DF93EC0181E0888F9B8DF5
:101640008C8D981305C0E889F989808185FD24C0B7
:10165000F62E0B8D10E00F5F1F4F0F731127E02E3A
:101660008C8DE8120CC00FB607FCFACFE889F98917
:10167000808185FFF5CFCE010E943603F1CF8B8D9F
:10168000FE01E80FF11DE35AFF4FF0820B8FEA894C
:10169000FB898081806207C0EE89FF896083E889C9
:1016A000F98980818064808381E090E0DF91CF912F
:1016B0001F910F91FF90EF900895CF93DF93EC016E
:1016C000888D8823C9F0EA89FB89808185FD05C062
:1016D000A889B9898C9186FD0FC00FB607FCF5CF9C
:1016E000808185FFF2CFA889B9898C9185FFEDCFE4
:1016F000CE010E943603E7CFDF91CF9108952FB737
:10170000F8946091EC047091ED048091EE04909156
:10171000EF042FBF08951F920F920FB60F9211245E
:101720002F933F938F939F93AF93BF938091EC043C
:101730009091ED04A091EE04B091EF043091EB0490
:1017400023E0230F2D3720F40196A11DB11D05C004
:1017500026E8230F0296A11DB11D2093EB04809370
:10176000EC049093ED04A093EE04B093EF04809109
:10177000F0049091F104A091F204B091F304019669
:10178000A11DB11D8093F0049093F104A093F20485
:10179000B093F304BF91AF919F918F913F912F919F
:1017A0000F900FBE0F901F9018951F920F920FB6BB
:1017B0000F9211240BB60F922F933F934F935F9389
:1017C0006F937F938F939F93AF93BF93EF93FF9309
:1017D000E0910E02F0910F021995FF91EF91BF91E8
:1017E000AF919F918F917F916F915F914F913F91B9
:1017F0002F910F900BBE0F900FBE0F901F9018955A
:101800001F920F920FB60F9211240BB60F922F93C7
:101810003F934F935F936F937F938F939F93AF9378
:10182000BF93EF93FF93E0910C02F0910D02199595
:10183000FF91EF91BF91AF919F918F917F916F91A8
:101840005F914F913F912F910F900BBE0F900FBE64
:101850000F901F9018951F920F920FB60F921124A0
:101860000BB60F922F933F934F935F936F937F939A
:101870008F939F93AF93BF93EF93FF93E0910202F7
:10188000F09103021995FF91EF91BF91AF919F9154
:101890008F917F916F915F914F913F912F910F9019
:1018A0000BBE0F900FBE0F901F9018951F920F92B6
:1018B0000FB60F9211240BB60F922F933F934F93B5
:1018C0005F936F937F938F939F93AF93BF93EF93A8
:1018D000FF93E0910002F09101021995FF91EF91C1
:1018E000BF91AF919F918F917F916F915F914F9138
:1018F0003F912F910F900BBE0F900FBE0F901F9036
:1019000018951F920F920FB60F9211240BB60F92DB
:101910002F933F934F935F936F937F938F939F93F7
:10192000AF93BF93EF93FF93E0910A02F0910B0204
:101930001995FF91EF91BF91AF919F918F917F91F9
:101940006F915F914F913F912F910F900BBE0F9030
:101950000FBE0F901F9018951F920F920FB60F9207
:1019600011240BB60F922F933F934F935F936F9376
:101970007F938F939F93AF93BF93EF93FF93E091E8
:101980000802F09109021995FF91EF91BF91AF9173
:101990009F918F917F916F915F914F913F912F9187
:1019A0000F900BBE0F900FBE0F901F9018951F92B7
:1019B0000F920FB60F9211240BB60F922F933F93F5
:1019C0004F935F936F937F938F939F93AF93BF9347
:1019D000EF93FF93E0910602F09107021995FF91B2
:1019E000EF91BF91AF919F918F917F916F915F9197
:1019F0004F913F912F910F900BBE0F900FBE0F9004
:101A00001F9018951F920F920FB60F9211240BB6CC
:101A10000F922F933F934F935F936F937F938F9387
:101A20009F93AF93BF93EF93FF93E0910402F091E4
:101A300005021995FF91EF91BF91AF919F918F9101
:101A40007F916F915F914F913F912F910F900BBEBE
:101A50000F900FBE0F901F9018951F920F920FB608
:101A60000F9211240BB60F922F933F934F935F93D6
:101A70006F937F938F939F93AF93BF93EF93FF9356
:101A800089E693E00E943603FF91EF91BF91AF91F9
:101A90009F918F917F916F915F914F913F912F9186
:101AA0000F900BBE0F900FBE0F901F9018951F92B6
:101AB0000F920FB60F9211240BB60F922F938F93A4
:101AC0009F93EF93FF93E0917903F0917A038081E4
:101AD000E0917F03F091800382FD12C0908180919C
:101AE00082038F5F8F7320918303821751F0E091FF
:101AF0008203F0E0E759FC4F958F8093820301C089
:101B00008081FF91EF919F918F912F910F900BBE4C
:101B10000F900FBE0F901F9018958FE194E00C94DA
:101B20009A04CF92DF92EF92FF92CF93DF93E9E690
:101B3000F3E01382128288EE93E0A0E0B0E08483A9
:101B40009583A683B7832AE132E03183208325EC95
:101B500030E03587248724EC30E03787268720EC77
:101B600030E0318B208B21EC30E0338B228B22EC68
:101B700030E0358B248B26EC30E0378B268B118EB2
:101B8000128E138E148EE6E0F4E0138212828483A8
:101B90009583A683B7838CE292E091838083EFE103
:101BA000F4E086E592E0918380838EE392E0938374
:101BB000828325E030E03583248326E030E03783DC
:101BC00026839187808787E090E09387828788E0EB
:101BD00090E09587848786E492E09787868780E007
:101BE00090E0A8E8B1E4808B918BA28BB38B8DEC55
:101BF0009CECACE4BDE3848B958BA68BB78B80E02B
:101C000090E0A0E7B1E4808F918FA28FB38F148E04
:101C1000158E168E178E10A211A212A213A215A253
:101C200014A243E062E085E994E00E949F0443E14E
:101C300062E181EA94E00E949F0487E492E5A4EDCA
:101C4000BAE38093AD049093AE04A093AF04B09335
:101C5000B0041092B3048BE18093B104C2EBD4E0E2
:101C60008AE1888361E08BE10DDB60E088810ADB3B
:101C700080E2C82E8EE4D82EE12CF12CC092B40460
:101C8000D092B504E092B604F092B7041092BA0470
:101C90008DE18093B804C9EBD4E08CE1888361E0E6
:101CA0008DE1F0DA60E08881EDDAC092BB04D09279
:101CB000BC04E092BD04F092BE041092BF041092E6
:101CC000C0041092C1041092C2041092C304109276
:101CD000C4041092C5041092C6041092C704109256
:101CE000C8041092C9041092CA048EE492E0909342
:101CF000CC048093CB041092CD041092CE041092A9
:101D0000CF041092D00489E190E09093D2048093A4
:101D1000D104C3EDD4E087E190E09983888361E04A
:101D200089E1B0DA61E08881ADDAE2E1F4E083E0F4
:101D300090E09087878313861286148680E090E077
:101D4000A8ECB1E48093D6049093D704A093D80470
:101D5000B093D904DF91CF91FF90EF90DF90CF90B7
:101D60000895789484B5826084BD84B5816084BD13
:101D700085B5826085BD85B5816085BD80916E0029
:101D8000816080936E00109281008091810082605A
:101D90008093810080918100816080938100809197
:101DA00080008160809380008091B1008460809386
:101DB000B1008091B00081608093B000809191006B
:101DC0008260809391008091910081608093910066
:101DD000809190008160809390008091A10082604A
:101DE0008093A1008091A10081608093A1008091E7
:101DF000A00081608093A000809121018260809387
:101E00002101809121018160809321018091200135
:101E100081608093200180917A00846080937A00B1
:101E200080917A00826080937A0080917A0081604C
:101E300080937A0080917A00806880937A00109273
:101E4000C100E0917903F0917A0382E08083E09110
:101E50007503F09176031082E0917703F091780397
:101E600080E1808310928103E0917D03F0917E03F5
:101E700086E08083E0917B03F0917C038081806128
:101E80008083E0917B03F0917C0380818860808374
:101E9000E0917B03F0917C03808180688083E091F6
:101EA0007B03F0917C0380818F7D80831092FE0202
:101EB0001092FD0210920003109221031092680309
:101EC00081E0809367031092620361E084E15DD951
:101ED00061E085E15AD98091B9008E7F8093B90085
:101EE0008091B9008D7F8093B90088E48093B80019
:101EF00085E48093BC008BE624D98F3F2FEF9207B7
:101F000019F021E030E011C08AE61BD98F3F2FEF96
:101F1000920749F489E615D9833D910509F066C118
:101F200021E030E060C120E030E0873D910509F418
:101F300055C181E090E090931A0480931904AC019C
:101F4000415051094230510538F42130310511F02A
:101F50002AE608C02BE606C02130310511F028E63C
:101F600001C029E620931B04029719F460E089E37D
:101F7000C9D860E083E2C6D86FE680E2C3D868EED5
:101F800073E080E090E0A6DAC4E6D0E0C12CD12C6A
:101F9000760143D86091120470911304072E000C4F
:101FA000880B990B3BD29B01AC01C701B60133D121
:101FB0006B017C0169E170E080E090E08BDA2197B1
:101FC00041F720E030E048EC52E4C701B6018BD184
:101FD0006093DF047093E0048093E1049093E20443
:101FE0000E9488041092E5041092E6041092E7041F
:101FF0001092E804C2E0D0E003E010E0AA24A39429
:10200000B12C8091E9049091EA048130910509F1A5
:102010008230910591F1892B09F042C02091E504AD
:102020003091E6044091E7045091E80461E08AE5CC
:1020300090E00E94E306882399F1B092EA04A0920E
:10204000E9046CED75E080E090E044DA0E948804D9
:1020500027C02091E5043091E6044091E7045091B7
:10206000E80460E08BE490E00E94E3068823C1F07E
:10207000D093EA04C093E90413C02091E5043091A1
:10208000E6044091E7045091E80460E089E690E0BE
:102090000E94E306882321F01093EA040093E904E8
:1020A000C090E904D090EA040D2C000CEE08FF0863
:1020B000F7FE0CC08DE20E94D80566277727CB017A
:1020C0006C197D098E099F094AE003C04AE0C701E7
:1020D000B6010E94E30584E692E00E94C7050FDB8B
:1020E000C090E304D090E4040D2C000CEE08FF082F
:1020F000DC01CB018C199D09AE09BF098897A105A8
:10210000B10568F3FCDA7093E4046093E304809112
:10211000DE04882309F45FC080E892E00E94C705CE
:102120000E940D086091120470911304CB0177FF97
:1021300004C088279927861B970B853F91400CF494
:1021400040C0072E000C880B990B68D12091DF044A
:102150003091E0044091E1045091E2045BD020E032
:1021600030E040E252E40ED227EF3CEC42E157E38C
:1021700009D26B017C019B01AC016091E504709177
:10218000E6048091E7049091E80445D06093E5046B
:102190007093E6048093E7049093E804A701960106
:1021A0006091DA047091DB048091DC049091DD048D
:1021B00032D06093DA047093DB048093DC04909354
:1021C000DD046091E5047091E6048091E70490914C
:1021D000E8040E9423060E945A0113CF82E090E097
:1021E000AACE20E030E080E090E0A5CE88E60E9414
:1021F000A108833D9105A9F38AE892E00E94C705F2
:1022000084E692E00E94C70568EC70E080E090E010
:1022100061D971CE5058BB27AA270ED075C166D19F
:1022200030F06BD120F031F49F3F11F41EF45BC10C
:102230000EF4E095E7FB51C1E92F77D180F3BA178F
:10224000620773078407950718F071F49EF58FC134
:102250000EF4E0950B2EBA2FA02D0B01B9019001C1
:102260000C01CA01A0011124FF27591B99F0593F05
:1022700050F4503E68F11A16F040A22F232F342F4D
:102280004427585FF3CF469537952795A795F0409B
:102290005395C9F77EF41F16BA0B620B730B840BB0
:1022A000BAF09150A1F0FF0FBB1F661F771F881F68
:1022B000C2F70EC0BA0F621F731F841F48F48795C0
:1022C00077956795B795F7959E3F08F0B3CF9395AF
:1022D000880F08F09927EE0F979587950895D9D024
:1022E00008F481E008950CD00FC107D140F0FED072
:1022F00030F021F45F3F19F0F0C0511139C1F3C043
:1023000014D198F39923C9F35523B1F3951B550BB9
:10231000BB27AA2762177307840738F09F5F5F4FB8
:10232000220F331F441FAA1FA9F333D00E2E3AF0F9
:10233000E0E830D091505040E695001CCAF729D013
:10234000FE2F27D0660F771F881FBB1F2617370762
:102350004807AB07B0E809F0BB0B802DBF01FF2792
:1023600093585F4F2AF09E3F510568F0B6C000C1F8
:102370005F3FECF3983EDCF3869577956795B795CC
:10238000F7959F5FC9F7880F911D9695879597F9E7
:102390000895E1E0660F771F881FBB1F6217730760
:1023A0008407BA0720F0621B730B840BBA0BEE1F75
:1023B00088F7E095089504D06894B111D9C00895C4
:1023C000BCD088F09F5790F0B92F9927B751A0F053
:1023D000D1F0660F771F881F991F1AF0BA95C9F7B9
:1023E00012C0B13081F0C3D0B1E00895C0C0672FF2
:1023F000782F8827B85F39F0B93FCCF38695779569
:102400006795B395D9F73EF4909580957095619551
:102410007F4F8F4F9F4F0895E89409C097FB3EF47C
:1024200090958095709561957F4F8F4F9F4F992321
:10243000A9F0F92F96E9BB279395F695879577959F
:102440006795B795F111F8CFFAF4BB0F11F460FF5F
:102450001BC06F5F7F4F8F4F9F4F16C0882311F0B7
:1024600096E911C0772321F09EE8872F762F05C0CB
:10247000662371F096E8862F70E060E02AF09A9566
:10248000660F771F881FDAF7880F9695879597F95B
:102490000895990F0008550FAA0BE0E8FEEF1616F5
:1024A0001706E807F907C0F012161306E407F50748
:1024B00098F0621B730B840B950B39F40A2661F0BC
:1024C000232B242B252B21F408950A2609F4A1405F
:1024D000A6958FEF811D811D089597F99F6780E86C
:1024E00070E060E008959FEF80EC089500240A9466
:1024F0001616170618060906089500240A941216DF
:102500001306140605060895092E0394000C11F411
:10251000882352F0BB0F40F4BF2B11F460FF04C0BE
:102520006F5F7F4F8F4F9F4F089557FD9058440F17
:10253000551F59F05F3F71F04795880F97FB991F22
:1025400061F09F3F79F087950895121613061406DF
:10255000551FF2CF4695F1DF08C01616170618066C
:10256000991FF1CF86957105610508940895E89447
:10257000BB2766277727CB0197F908958ADF08F4F0
:102580008FEF08950BD0C0CFB1DF28F0B6DF18F081
:10259000952309F0A2CFA7CF1124EACFC6DFA0F37D
:1025A000959FD1F3950F50E0551F629FF001729FE8
:1025B000BB27F00DB11D639FAA27F00DB11DAA1F07
:1025C000649F6627B00DA11D661F829F2227B00D54
:1025D000A11D621F739FB00DA11D621F839FA00DDF
:1025E000611D221F749F3327A00D611D231F849F2F
:1025F000600D211D822F762F6A2F11249F57504086
:102600008AF0E1F088234AF0EE0FFF1FBB1F661F20
:10261000771F881F91505040A9F79E3F510570F0D9
:102620005CCFA6CF5F3FECF3983EDCF386957795C1
:102630006795B795F795E7959F5FC1F7FE2B880FD4
:10264000911D9695879597F9089523DF880B990B2F
:10265000089597FB072E16F4009406D077FD08D056
:1026600035D007FC05D03EF4909581959F4F089595
:10267000709561957F4F0895A1E21A2EAA1BBB1B8E
:10268000FD010DC0AA1FBB1FEE1FFF1FA217B3073E
:10269000E407F50720F0A21BB30BE40BF50B661F54
:1026A000771F881F991F1A9469F760957095809518
:1026B00090959B01AC01BD01CF010895EE0FFF1F66
:1026C000881F8BBF0790F691E02D1994AA1BBB1BA6
:1026D00051E107C0AA1FBB1FA617B70710F0A61B22
:1026E000B70B881F991F5A95A9F780959095BC0143
:1026F000CD010895CF93DF938230910510F482E0ED
:1027000090E0E091F604F091F70420E030E0C0E0C2
:10271000D0E0309711F14081518148175907C0F03E
:102720004817590761F482819381209719F09B83A0
:102730008A832BC09093F7048093F60426C021155A
:10274000310519F04217530718F49A01BE01DF0151
:10275000EF010280F381E02DDCCF2115310509F175
:10276000281B390B2430310590F412968D919C91E1
:1027700013976115710521F0FB019383828304C0D7
:102780009093F7048093F604FD01329644C0FD0156
:10279000E20FF31F81939193225031092D933C93C3
:1027A0003AC02091F4043091F504232B41F4209198
:1027B0001202309113023093F5042093F404209117
:1027C0001002309111022115310541F42DB73EB7A9
:1027D0004091140250911502241B350BE091F40432
:1027E000F091F504E217F307A0F42E1B3F0B281716
:1027F000390778F0AC014E5F5F4F2417350748F07A
:102800004E0F5F1F5093F5044093F404819391930E
:1028100002C0E0E0F0E0CF01DF91CF9108950F9387
:102820001F93CF93DF93009709F48CC0FC0132977C
:10283000138212820091F6041091F704011511051C
:1028400081F420813181820F931F2091F404309113
:10285000F5042817390779F5F093F504E093F404AB
:1028600071C0D80140E050E0AE17BF0750F4129697
:102870002D913C911397AD012115310509F1D90135
:10288000F3CF9D01DA013383228360817181860F4A
:10289000971F8217930769F4EC0128813981260F6D
:1028A000371F2E5F3F4F318320838A819B81938323
:1028B0008283452B29F4F093F704E093F60442C099
:1028C0001396FC93EE931297ED01499159919E0155
:1028D000240F351FE217F30771F480819181840F73
:1028E000951F029611969C938E93828193811396E5
:1028F0009C938E931297E0E0F0E0D80112968D91B0
:102900009C911397009719F0F8018C01F6CF8D91E7
:102910009C9198012E5F3F4F820F931F2091F404EA
:102920003091F5042817390769F4309729F410928B
:10293000F7041092F60402C0138212821093F50479
:102940000093F404DF91CF911F910F91089581E0DE
:1029500090E0F89400C011E0C7E2D1E000E005C0CB
:10296000802FFE01ABDE2196011DC832D10780E029
:082970000807B1F7F894FFCF4E
:10297800A20AA20AA20AA20AA20AA20AA20AA20AEF
:102988000000F804800000000000160BA30ACE0A1D
:102998005D0BFF0ADD0AF10A000000002402F501C0
:1029A800C0019301B701A3019401000000009D0438
:1029B8003403000000009E04300300000000990466
:1029C8003203000000009A049B0452657365747416
:1029D800696E67000D0A006E616E00696E66006FB1
:1029E800766600636F6E74726F6C202863293A00F4
:1029F80048656164696E673A20004661696C656480
:102A080020746F206175746F6465746563742067E2
:0A2A180079726F2074797065210057
:00000001FF
