:1000000015C100000C940B090C94E0080C94B50881
:100010000C948A080C945F080C943408FAC700000A
:10002000CDC7000034C1000032C1000030C1000063
:100030002EC100002CC100002AC1000028C1000010
:1000400026C1000015C4000022C1000020C100002C
:100050001EC100001CC100001AC1000065C70000DD
:1000600016C100000C945F090C94360910C1000001
:100070000EC100000CC100000AC1000008C1000050
:10008000CAC3000004C1000002C1000000C100009A
:10009000FEC00000FCC00000FAC0000016C4000052
:1000A000F6C00000F4C0000089C30000F0C00000EA
:1000B000EEC00000ECC00000EAC0000052C3000027
:1000C000E6C00000E4C00000E2C00000E0C00000A4
:1000D000DEC00000DCC00000DAC00000D8C00000B4
:1000E000D6C00000820B850B740B780B7C0BBC0B0D
:1000F000890B8D0B930B970B9B0BA10BA50BA90BDE
:10010000BC0BAF0BB30BB70B000020002300260085
:1001100029002C002F00320000010000030106011D
:10012000090100002100240027002A002D003000D2
:10013000330001010000040107010A010000220050
:10014000250028002B002E003100340002010000A1
:10015000050108010B010505050507050808080844
:10016000020202020A0A080804040404010101014F
:10017000010101010303030303030303040707074A
:100180000C0C0C0C0C0C0C0C0202020206060606EF
:10019000060606060B0B0B0B0B0B0B0B01021020BC
:1001A00020080810204010204080020102010804AD
:1001B0000201010204081020408080402010080441
:1001C000020180040201804020100804020108049A
:1001D00002010102040810204080010204081020DE
:1001E000408000000A0B02090C0D0E0807030401F1
:1001F00000000000000000000000000000000000FF
:1002000000000000000000000000000000001211CB
:1002100010000000000000000000000000000000CE
:100220000000000000000000770F0C0C11241FBE1E
:10023000CFEFD1E2DEBFCDBF00E00CBF12E0A0E007
:10024000B2E0E8E7F9E200E00BBF02C007900D92D0
:10025000AC39B107D9F725E0ACE9B2E001C01D9295
:10026000A837B207E1F711E0C5E1D1E000E006C030
:1002700021970109802FFE010E947213C431D1071A
:1002800080E00807A9F70E940F0C0C94AB14B8CEBD
:100290000895E091080380910703E81730F4F0E037
:1002A000E45DFC4F808190E008958FEF9FEF08950B
:1002B0009091080380910703981750F4E92FF0E01C
:1002C000E45DFC4F208130E09F5F9093080302C003
:1002D0002FEF3FEFC90108958091070390E020912F
:1002E0000803821B91090895089580E090E0089525
:1002F00085ED8093BC008091BC0084FDFCCF109202
:10030000720308954091CA02262F30E0240F311D58
:1003100021323105DCF4209172032430C9F4FC0150
:1003200080E090E0861758F43091CA022191DC01F8
:10033000A855BD4FA30FB11D2C930196F3CF80910B
:10034000CA02680F6093CA0280E0089581E00895B0
:1003500082E00895CF92DF92EF92FF920F931F9366
:10036000CF93DF937C01262F972F8A018091090379
:10037000882391F0C62FD72F6E01C40ED51ECC1541
:10038000DD0569F06991D701ED91FC910190F08153
:10039000E02DC7011995F3CF642F822FB3DFC80179
:1003A000DF91CF911F910F91FF90EF90DF90CF9051
:1003B0000895CF93DF931F92CDB7DEB76983209165
:1003C00009032223D1F020912B03203240F021E0B9
:1003D00030E0FC013383228380E090E014C0809100
:1003E0000A03E82FF0E0E55FFC4F998190838F5F6F
:1003F00080930A0380932B0304C061E0CE01019631
:1004000081DF81E090E00F90DF91CF9108958231FC
:1004100009F466C0B8F4823069F1833009F073C022
:1004200070939F0260939E028BED92E09093030283
:100430008093020280916A00837F846080936A00C7
:10044000ED9A5FC0843141F1C8F1853109F05BC09C
:100450007093A1026093A00286ED92E09093050252
:1004600080930402809169008C7F81608093690091
:10047000E89A47C070939D0260939C0280EE92E0E0
:10048000909301028093000280916A008C7F8160CA
:1004900080936A00EC9A35C07093A3026093A20225
:1004A00081ED92E0909307028093060280916900AB
:1004B000837F846080936900E99A23C07093A502CA
:1004C0006093A4028CEC92E090930902809308025E
:1004D000809169008F7C806180936900EA9A11C0E5
:1004E0007093A7026093A60287EC92E090930B02B0
:1004F00080930A02809169008F7380648093690001
:10050000EB9A81E0089580E00895DC01ED91FD9182
:100510008081ED91FD919081ED91FD916C916370E1
:100520008E2309F064609F2309F06860E2EAF2E03C
:10053000E60FF11D659565956D936D917D918D919A
:100540009D91099423C01AC012C016C010C01EC0CD
:1005500009C014C013C006C019C009C00DC007C02F
:100560000DC014C062507040804090400BC061507C
:1005700070408040904006C06E5F01C06F5F7F4F4B
:100580008F4F9F4F9E938E937E936E93089580918D
:10059000A6029091A702B9CF8091A4029091A502E2
:1005A000B4CF8091A2029091A302AFCF8091A0021C
:1005B0009091A102AACF80919E0290919F02A5CF17
:1005C00080919C0290919D02A0CFCF92DF92EF92FA
:1005D000FF920F931F93CF93DF936C018B017A01EE
:1005E000EC01C151DD4F888187FF04C0FB011182FE
:1005F000108224C08CE08C9D90018D9D300D1124C3
:100600008881A901480F511D87FD5A958091AC043E
:1006100090E04817590794F48881A901480F511DAB
:1006200087FD5A95CA01FA01EE0FFF1F8E0F9F1F1B
:10063000FC01E45EFB4F808186FD19C088818F5FDD
:1006400088838CE08C9D90018D9D300D11248881D4
:10065000A901480F511D87FD5A958091AC0490E087
:1006600048175907BCF488818C3044F113C0888145
:10067000280F311D87FD3A95F901EE0FFF1F2E0F50
:100680003F1FF901E45EFB4F808160E08F730E94A1
:10069000540BD4CFF80180819181049680349C4919
:1006A00018F480E49CE904C0F801808191810496EB
:1006B000F701918380838FEF888344C0F8014081E4
:1006C00051818881B901680F711D87FD7A95CB0131
:1006D000FB01EE0FFF1F8E0F9F1FFC01E45EFB4F1F
:1006E00081819281840F951FF70191838083888196
:1006F000A901480F511D87FD5A95CA01FA01EE0F55
:10070000FF1F8E0F9F1FFC01E45EFB4F808186FF61
:1007100019C08881280F311D87FD3A95F901EE0F28
:10072000FF1F2E0F3F1FF901E45EFB4F808161E048
:100730008F73DF91CF911F910F91FF90EF90DF901A
:10074000CF90B2C7DF91CF911F910F91FF90EF90A3
:10075000DF90CF9008950C940F140C940F140C9408
:100760000F141F920F920FB60F9211240BB60F9217
:100770002F933F934F935F936F937F938F939F93A9
:10078000AF93BF93EF93FF9348E251E064E271E0CF
:1007900080E090E01ADFFF91EF91BF91AF919F91C0
:1007A0008F917F916F915F914F913F912F910F901A
:1007B0000BBE0F900FBE0F901F9018951F920F92B7
:1007C0000FB60F9211240BB60F922F933F934F93B6
:1007D0005F936F937F938F939F93AF93BF93EF93A9
:1007E000FF9348EA50E064EA70E083E090E0EDDED9
:1007F000FF91EF91BF91AF919F918F917F916F91F9
:100800005F914F913F912F910F900BBE0F900FBEB4
:100810000F901F9018951F920F920FB60F921124F0
:100820000BB60F922F933F934F935F936F937F93EA
:100830008F939F93AF93BF93EF93FF9348E950E05B
:1008400064E970E082E090E0C0DEFF91EF91BF913B
:10085000AF919F918F917F916F915F914F913F9158
:100860002F910F900BBE0F900FBE0F901F901895F9
:100870001F920F920FB60F9211240BB60F922F9367
:100880003F934F935F936F937F938F939F93AF9318
:10089000BF93EF93FF9348E850E064E870E081E095
:1008A00090E093DEFF91EF91BF91AF919F918F9177
:1008B0007F916F915F914F913F912F910F900BBE60
:1008C0000F900FBE0F901F9018951F920F920FB6AA
:1008D0000F9211240BB60F922F933F934F935F9378
:1008E0006F937F938F939F93AF93BF93EF93FF93F8
:1008F0008091B900887F803609F49CC068F5883201
:1009000009F45BC090F4803109F454C038F48823B2
:1009100009F4F6C0883009F44DC0F5C0883109F4F7
:100920004CC0803209F45DC0EEC0803409F468C068
:1009300048F4803309F455C0883309F0E4C080934B
:100940007003D8C0803509F44FC0883509F45DC004
:10095000883409F0D8C0D6C0883909F4C7C0A8F4D3
:10096000883709F467C038F4883609F463C08037E3
:1009700009F460C0C8C0883809F4B8C0803909F4E7
:100980005FC0803809F0BFC05BC0803B09F486C0FF
:1009900038F4803A09F466C0883A09F47FC0B3C0DD
:1009A000803C09F4A7C0883C09F4A4C0883B09F442
:1009B0008AC0A9C080916D0310C090916F0380918F
:1009C0006E03981770F5E0916F0381E08E0F8093AE
:1009D0006F03F0E0E45BFC4F80818093BB0085EC0B
:1009E00086C0809370038EC0E0916F0381E08E0F0C
:1009F00080936F038091BB00F0E0E45BFC4F808349
:100A000090916F0380916E036EC0E0916F0381E05F
:100A10008E0F80936F038091BB00F0E0E45BFC4F8E
:100A200080838091710381116DC081E080936C039C
:100A300084EA61C083E0809372031092EE02CFCF0C
:100A40008091EE02803208F051C0E091EE0281E028
:100A50008E0F8093EE028091BB00F0E0E253FD4FD9
:100A60008083BDCF85EC8093BC001092720380918F
:100A7000EE02803230F4E091EE02F0E0E253FD4FFE
:100A800010826091EE0270E0E091CC02F091CD0214
:100A90008EEC92E019951092EE0235C084E08093BE
:100AA00072031092CB021092CA02E091C802F09138
:100AB000C90219958091CA02811105C081E0809315
:100AC000CA021092A802E091CB0281E08E0F8093BF
:100AD000CB02F0E0E855FD4F80818093BB00909100
:100AE000CB028091CA02981708F479CF85E88093E9
:100AF000BC0009C085EC8093BC001092720303C057
:100B000010927003F5DBFF91EF91BF91AF919F9130
:100B10008F917F916F915F914F913F912F910F90A6
:100B20000BBE0F900FBE0F901F901895089508955B
:100B30000C940F14089508950F931F93CF93DF9390
:100B4000EC01062F142F62E0802F2AD662E0812F5D
:100B500027D6802F90E0FC01EA5AFE4FE491F0E0A6
:100B6000EE0FFF1FE85FFE4FA591B491B983A883F4
:100B7000FC01E456FE4F84918C83212F30E0F90173
:100B8000EA5AFE4F9491E92FF0E0EE0FFF1FE85F65
:100B9000FE4F459154915B834A83F901E456FE4F21
:100BA000E491ED831F82188619861A86EBE3FFE134
:100BB0003197F1F7EC91E82381E009F480E0FA0144
:100BC00020819D81922309F082608E83BE01802F57
:100BD0001EDC8B87BE01812F1ADC2B8590E0820FF3
:100BE000911D8B87DF91CF911F910F9108953FB792
:100BF000F8948091030390910403A0910503B091B0
:100C0000060326B5A89B05C02F3F19F00196A11D2C
:100C1000B11D3FBFBA2FA92F982F8827820F911D92
:100C2000A11DB11DBC01CD0142E0660F771F881FD9
:100C3000991F4A95D1F708958F929F92AF92BF92D4
:100C4000CF92DF92EF92FF926B017C01D0DF4B01DC
:100C50005C01C114D104E104F104E9F0C8DFDC0156
:100C6000CB0188199909AA09BB09883E9340A105BF
:100C7000B10578F321E0C21AD108E108F10888EE45
:100C8000880E83E0981EA11CB11CC114D104E1049C
:100C9000F10421F7DECFFF90EF90DF90CF90BF906F
:100CA000AF909F908F9008950895CF92DF92EF922A
:100CB000FF920F931F93CF93DF936C017A018B0107
:100CC000C0E0D0E0CE15DF0589F0D8016D918D012F
:100CD000D601ED91FC910190F081E02DC6011995AE
:100CE000892B11F47E0102C02196ECCFC701DF9160
:100CF000CF911F910F91FF90EF90DF90CF900895CB
:100D0000FC01538D448D252F30E0842F90E0821B11
:100D1000930B541710F0CF96089501970895FC0196
:100D2000918D828D981761F0828DDF01A80FB11D22
:100D30005D968C91928D9F5F9F73928F90E0089546
:100D40008FEF9FEF0895FC01918D828D981731F000
:100D5000828DE80FF11D858D90E008958FEF9FEF54
:100D60000895FC01918D228D892F90E0805C9F4F2A
:100D7000821B91098F739927089583E793E0F1DF30
:100D800021E0892B09F420E0822F0895FC01848D55
:100D9000DF01A80FB11DA35ABF4F2C91848D90E0A5
:100DA00001968F739927848FA689B7892C93A08980
:100DB000B1898C9180648C93938D848D981306C037
:100DC0000288F389E02D80818F7D80830895EF92E2
:100DD000FF920F931F93CF93DF93EC0181E0888FF5
:100DE0009B8D8C8D981305C0E889F989808185FDDC
:100DF00023C0F62E0B8D10E00F5F1F4F0F731127CE
:100E0000E02E8C8DE8120BC00FB607FCFACFE889F4
:100E1000F989808185FFF5CFCE01B8DFF2CF8B8DC8
:100E2000FE01E80FF11DE35AFF4FF0820B8FEA89B4
:100E3000FB898081806207C0EE89FF896083E88931
:100E4000F98980818064808381E090E0DF91CF9197
:100E50001F910F91FF90EF900895CF93DF93EC01D6
:100E6000888D8823C1F0EA89FB89808185FD05C0D2
:100E7000A889B9898C9186FD0EC00FB607FCF5CF05
:100E8000808185FFF2CFA889B9898C9185FFEDCF4C
:100E9000CE017CDFE8CFDF91CF91089580E090E034
:100EA000892B19F06ADF811125C080E090E0892B41
:100EB00041F080E090E0892B21F00E940000811138
:100EC0001CC080E090E0892B41F080E090E0892B0D
:100ED00021F00E940000811113C080E090E0892B76
:100EE000A1F080E090E0892B81F00E940000811148
:100EF0000AC008950E940000D8CF0E940000E1CFF0
:100F00000E940000EACF0C94000008950E94A714EC
:100F10002FB7F8946091FF02709100038091010354
:100F2000909102032FBF08951F920F920FB60F9258
:100F300011242F933F938F939F93AF93BF938091EF
:100F4000FF0290910003A0910103B0910203309140
:100F5000FE0223E0230F2D3720F40196A11DB11DC1
:100F600005C026E8230F0296A11DB11D2093FE02A5
:100F70008093FF0290930003A0930103B0930203B8
:100F80008091030390910403A0910503B09106039F
:100F90000196A11DB11D8093030390930403A093B8
:100FA0000503B0930603BF91AF919F918F913F913D
:100FB0002F910F900FBE0F901F9018951F920F92B8
:100FC0000FB60F9211240BB60F922F933F934F93AE
:100FD0005F936F937F938F939F93AF93BF93EF93A1
:100FE000FF93E0910E02F0910F021995FF91EF919E
:100FF000BF91AF919F918F917F916F915F914F9131
:101000003F912F910F900BBE0F900FBE0F901F902E
:1010100018951F920F920FB60F9211240BB60F92D4
:101020002F933F934F935F936F937F938F939F93F0
:10103000AF93BF93EF93FF93E0910C02F0910D02F9
:101040001995FF91EF91BF91AF919F918F917F91F2
:101050006F915F914F913F912F910F900BBE0F9029
:101060000FBE0F901F9018951F920F920FB60F9200
:1010700011240BB60F922F933F934F935F936F936F
:101080007F938F939F93AF93BF93EF93FF93E091E1
:101090000202F09103021995FF91EF91BF91AF9178
:1010A0009F918F917F916F915F914F913F912F9180
:1010B0000F900BBE0F900FBE0F901F9018951F92B0
:1010C0000F920FB60F9211240BB60F922F933F93EE
:1010D0004F935F936F937F938F939F93AF93BF9340
:1010E000EF93FF93E0910002F09101021995FF91B7
:1010F000EF91BF91AF919F918F917F916F915F9190
:101100004F913F912F910F900BBE0F900FBE0F90FC
:101110001F9018951F920F920FB60F9211240BB6C5
:101120000F922F933F934F935F936F937F938F9380
:101130009F93AF93BF93EF93FF93E0910A02F091D7
:101140000B021995FF91EF91BF91AF919F918F91F4
:101150007F916F915F914F913F912F910F900BBEB7
:101160000F900FBE0F901F9018951F920F920FB601
:101170000F9211240BB60F922F933F934F935F93CF
:101180006F937F938F939F93AF93BF93EF93FF934F
:10119000E0910802F09109021995FF91EF91BF913A
:1011A000AF919F918F917F916F915F914F913F91FF
:1011B0002F910F900BBE0F900FBE0F901F901895A0
:1011C0001F920F920FB60F9211240BB60F922F930E
:1011D0003F934F935F936F937F938F939F93AF93BF
:1011E000BF93EF93FF93E0910602F09107021995E8
:1011F000FF91EF91BF91AF919F918F917F916F91EF
:101200005F914F913F912F910F900BBE0F900FBEAA
:101210000F901F9018951F920F920FB60F921124E6
:101220000BB60F922F933F934F935F936F937F93E0
:101230008F939F93AF93BF93EF93FF93E09104023B
:10124000F09105021995FF91EF91BF91AF919F9198
:101250008F917F916F915F914F913F912F910F905F
:101260000BBE0F900FBE0F901F9018951F920F92FC
:101270000FB60F9211240BB60F922F933F934F93FB
:101280005F936F937F938F939F93AF93BF93EF93EE
:10129000FF9383E793E07ADDFF91EF91BF91AF91E8
:1012A0009F918F917F916F915F914F913F912F917E
:1012B0000F900BBE0F900FBE0F901F9018951F92AE
:1012C0000F920FB60F9211240BB60F922F938F939C
:1012D0009F93EF93FF93E0918303F09184038081C8
:1012E000E0918903F0918A0382FD12C09081809180
:1012F0008C038F5F8F7320918D03821751F0E091E3
:101300008C03F0E0ED58FC4F958F80938C0301C067
:101310008081FF91EF919F918F912F910F900BBE44
:101320000F900FBE0F901F9018959091720391111E
:10133000FCCF91E090937203909371032FEF209371
:10134000700310926F03260F20936E0390936D032A
:1013500090916D03880F892B80936D0380916C03AE
:10136000813061F410926C0380916D038093BB0017
:101370008091BC0083FDF8CF85EC01C085EE8093A1
:10138000BC00809172038130E1F380916F03861776
:1013900010F460916F03ACE4B3E02CE233E0F901A8
:1013A0008E2F821B861718F48D918193F9CF862F8B
:1013B0000895382F20912B0390916F05213208F06A
:1013C00049C0809172038111FCCF42E040937203C7
:1013D000309371033FEF3093700310926F032093AB
:1013E0006E03ABE0B3E04CE453E0FA013E2F341B54
:1013F000321718F43D913193F9CF10926D0320917B
:101400006D03990F922B90936D0390916C03913023
:1014100061F410926C0390916D039093BB009091D6
:10142000BC0093FDF8CF95EC01C095EE9093BC0005
:10143000909172039230E1F3909170039F3F79F0A5
:1014400080917003803241F080917003803331F0DD
:1014500084E005C081E003C082E001C083E0109217
:101460000A0310922B03109209030895BF92CF92A2
:10147000DF92EF92FF920F931F93CF93DF938091B0
:10148000B90491E09093090380936F0510920A03C9
:1014900010922B0368EA80E194E00E94D90181E078
:1014A00088DF66E08091B90440DFE82E10920803DF
:1014B000809307032DDD6B01F12C26E0E216F10489
:1014C000A4F48091BA049091BB04892BB1F320DD80
:1014D0006C197D098091BA049091BB048617970717
:1014E00060F781E08093BC0433C080E194E00E9407
:1014F0005801C82E80E194E00E945801B82E80E186
:1015000094E00E945801E82E80E194E00E94580186
:10151000D82E80E194E00E945801F82E80E194E0FA
:101520000E9458011B2D00E00C291093B104009378
:10153000B004DD2D20E0C22FCE29D093B304C09398
:10154000B204982F88278F299093B5048093B40410
:10155000DF91CF911F910F91FF90EF90DF90CF908F
:10156000BF9008951F93CF93DF93162FC0EBD4E065
:10157000998521E02093090390936F0510920A0347
:1015800010922B03682F80E194E00E94D901612F13
:1015900080E194E00E94D90181E00BDF8E83DF912E
:1015A000CF911F910895CF93C82F81E080930903B5
:1015B000C0936F0510920A0310922B036FE080E135
:1015C00094E00E94D90181E0F4DE81110EC061E057
:1015D0008C2FABDE1092080380930703882329F039
:1015E00080E194E0CF910C9458018FEF9FEFCF9161
:1015F0000895009761F0FC0101900020E9F7319710
:10160000AF01481B590BBC0183E793E04ECB80E050
:1016100090E00895E0917303F09174030190F081DC
:10162000E02D682F83E793E019948F929F92AF92F9
:10163000BF920F931F93CF93DF93CDB7DEB7A197E0
:101640000FB6F894DEBF0FBECDBF19A2423008F42A
:101650004AE08E010F5D1F4F842E912CA12CB12CDE
:10166000A5019401D9D5E62FB901CA01015011098C
:10167000EA3014F4E05D01C0E95CD801EC93232B5F
:10168000242B252B69F7C801B4DFA1960FB6F89477
:10169000DEBF0FBECDBFDF91CF911F910F91BF90E5
:1016A000AF909F908F900895362F90E0FC01EE51FF
:1016B000FE4F4491FC01E456FE4F2491FC01EA5A8E
:1016C000FE4F9491992309F46AC0442309F454C04D
:1016D00050E0FA013197E231F10508F04DC088275A
:1016E000EE58FF4F8F4FFEC7809180008F7707C065
:1016F000809180008F7D03C080918000877F8093E0
:1017000080003AC084B58F7702C084B58F7D84BDD8
:1017100033C08091B0008F7703C08091B0008F7D7F
:101720008093B00029C0809190008F7707C080918E
:1017300090008F7D03C080919000877F8093900000
:101740001BC08091A0008F7707C08091A0008F7D83
:1017500003C08091A000877F8093A0000DC080917E
:1017600020018F7707C0809120018F7D03C0809179
:101770002001877F80932001E92FF0E0EE0FFF1F0B
:10178000E45CFE4FA591B4918FB7F894EC913111C0
:1017900003C020952E2301C02E2B2C938FBF0895BC
:1017A000CF93DF9390E0FC01E456FE4F2491FC01BF
:1017B000EA5AFE4F8491882361F190E0880F991FC7
:1017C000FC01EE5DFE4FC591D491FC01E45CFE4F3F
:1017D000A591B491611109C09FB7F89488812095B3
:1017E00082238883EC912E230BC0623061F49FB773
:1017F000F8943881822F809583238883EC912E2B57
:101800002C939FBF06C08FB7F894E8812E2B2883B6
:101810008FBFDF91CF9108958DEB94E088C9CF936E
:10182000DF9300D0CDB7DEB7789484B5826084BDF5
:1018300084B5816084BD85B5826085BD85B58160D4
:1018400085BD80916E00816080936E001092810052
:10185000809181008260809381008091810081600D
:1018600080938100809180008160809380008091CE
:10187000B10084608093B1008091B000816080935A
:10188000B0008091910082608093910080919100DE
:10189000816080939100809190008160809390009E
:1018A0008091A10082608093A1008091A10081605D
:1018B0008093A1008091A00081608093A00080911E
:1018C00021018260809321018091210181608093B8
:1018D00021018091200181608093200180917A0014
:1018E000846080937A0080917A00826080937A008D
:1018F00080917A00816080937A0080917A0080687C
:1019000080937A001092C100E0918303F0918403E8
:1019100082E08083E0917F03F09180031082E09168
:101920008103F091820380E1808310928B03E09128
:101930008703F091880386E08083E0918503F0912E
:101940008603808180618083E0918503F091860326
:10195000808188608083E0918503F0918603808197
:1019600080688083E0918503F091860380818F7D7C
:101970008083109208031092070310920A031092BA
:101980002B031092720381E08093710310926C0319
:1019900061E084E189DE61E085E186DE8091B90065
:1019A0008E7F8093B9008091B9008D7F8093B900BC
:1019B00088E48093B80085E48093BC008BE6F3DD77
:1019C0008F3F2FEF920719F021E030E011C08AE637
:1019D000EADD8F3FEFEF9E0749F489E6E4DD833DC2
:1019E000910509F072C221E030E06CC220E030E0E5
:1019F000873D910509F435C281E090E09093B804E9
:101A00008093B704AC01415051094230510538F47C
:101A10002130310511F02AE608C02BE606C021303E
:101A2000310511F028E601C029E62093B904029798
:101A300019F460E089E396DD60E083E293DD6FE610
:101A400080E290DD68EE73E080E090E0F5D804E697
:101A500010E0C12CD12C760109DD6091B0047091A9
:101A6000B104072E000C880B990B06D59B01AC0125
:101A7000C701B60103D46B017C0169E170E080E02D
:101A800090E0DAD80150110939F720E030E048EC55
:101A900052E4C701B6015AD46093F3027093F40282
:101AA0008093F5029093F6028091AD04803308F0A4
:101AB0004EC061E089E074DE8091AD04E82FF0E073
:101AC0009F01220F331FE20FF31FE45EFB4F908153
:101AD000907C996090831092AE041092AF046CE0F9
:101AE000F5D53CE0839FA00111249801240F351FF8
:101AF000F901EE0FFF1F2E0F3F1FF901E45EFB4FB0
:101B0000908196FD17C00F5F1F4F0C30110569F7CC
:101B1000813009F0A9C11092800082E08093810099
:101B20001092850010928400B19A80916F008260BB
:101B300080936F00E091AD04F0E0CF01880F991F12
:101B4000E80FF91FE45EFB4F808180648083109270
:101B5000FB021092F7021092F8021092F902109212
:101B6000FA0268E5262E62E0362E74EB872E912C61
:101B7000A12CB12CC12CD12C76019091AF04809175
:101B8000AE04E091AD04E983E03308F051C0810177
:101B9000091B110997FD1395000F111F000F111F4D
:101BA00028E830E0281B310987FD3395F901EE0F55
:101BB000FF1FEE0FFF1FFB83EA832F01FF0F660855
:101BC0007708C801012E000CAA0BBB0BBC01CD018C
:101BD0006419750986099709A701960168D5A501B9
:101BE0009401F4D2420E531E641E751E2A813B815D
:101BF000421653063CF05B824A820415150514F424
:101C00001B830A834A815B8142505109440F551F4F
:101C10002FB7F894E9818E2F90E0FC01EE0FFF1FA3
:101C20008E0F9F1FFC01E45EFB4F528341832FBF49
:101C30004AE0C701B601F9DC8AE592E0DADC68EE39
:101C400073E080E090E00E941C06FFE0CF0ED11C04
:101C5000E11CF11C23ECC216D104E104F10409F0EB
:101C60008CCF6FEF84E020DD68EE73E080E090E0E1
:101C70000E941C0660E084E017DD8DE592E0B9DC8F
:101C80008AE592E0B6DC60E271EA87E090E00E94CB
:101C90001C063ED90091FC021091FD02012E000CA1
:101CA000220B330BDC01CB01801B910BA20BB30B7E
:101CB0008897A105B10568F32BD97093FD02609355
:101CC000FC028091FB02882309F4C9C085E692E0FA
:101CD00090DCCCDB6091B0047091B104CB0177FF54
:101CE00004C088279927861B970B853F91405CF19C
:101CF000072E000C880B990BBFD32091F302309173
:101D0000F4024091F5025091F602B7D220E030E0A3
:101D100040E252E465D427EF3CEC42E157E360D463
:101D20009B01AC016091F7027091F8028091F90279
:101D30009091FA02A3D26093F7027093F802809315
:101D4000F9029093FA02C090F702D090F802E09066
:101D5000F902F090FA02A7019601C701B601A3D4D7
:101D6000882319F08FE692E024C026013701E89419
:101D700077F82FEF3FEF4FE75FE7C301B20193D44E
:101D800081110CC02FEF3FEF4FE75FE7C301B201B6
:101D9000D9D218161CF483E792E00BC02FEF3FEF67
:101DA0004FE75FE4C701B60117D4181624F487E79C
:101DB00092E01FDC54C02FEF3FEF4FE75FECC7010D
:101DC000B601C0D287FDF3CF20E030E0A901C70102
:101DD000B601B8D287FF06C08DE21CDCF7FAF0949A
:101DE000F7F8F0942AE037ED43EA5BE3C701B60168
:101DF00045D22B013C0112D36B017C013BD39B01EB
:101E0000AC01C301B20139D22B013C014AE0C70148
:101E1000B6010BDC8EE2FEDB20E030E040E251E474
:101E2000C301B201DDD36B017C01F8D22B01612C1F
:101E3000712C4AE0C301B201F8DBC301B2011AD32D
:101E40009B01AC01C701B60118D220E030E040E2AE
:101E500051E4C6D3E3D280E090E04AE0E6DB1ED84E
:101E600089CE82E090E0CACD823061F41092900079
:101E700080939100109295001092940088BB8093FB
:101E8000710058CE833069F41092A00082E08093F4
:101E9000A1001092A5001092A40089BB809372004B
:101EA00049CE811147CE1092200182E0809321011A
:101EB00010922501109224018ABB809373003ACEC0
:101EC00020E030E080E090E099CD88E66CDB833D57
:101ED0009105B1F38BE792E08CDB8AE592E089DB38
:101EE00068EC70E080E090E00E941C0667CDCF9225
:101EF000DF92EF92FF92109276031092750388EEB4
:101F000093E0A0E0B0E08093770390937803A093F0
:101F10007903B0937A032AE132E03093740320937B
:101F2000730325EC30E03093800320937F0324EC8F
:101F300030E0309382032093810320EC30E0309333
:101F400084032093830321EC30E0309386032093B5
:101F5000850322EC30E0309388032093870326EC3E
:101F600030E030938A032093890310928C031092FF
:101F70008D0310928E0310928F031092130410920F
:101F800012048093140490931504A0931604B09344
:101F900017048CE292E0909311048093100486E57C
:101FA00092E09093BE048093BD048EE392E0909300
:101FB000C0048093BF0425E030E03093C204209336
:101FC000C10426E030E03093C4042093C30490930E
:101FD000C6048093C50487E090E09093C804809382
:101FE000C70488E090E09093CA048093C90443E05A
:101FF00062E08BEC94E00E949C0543E162E187ED96
:1020000094E00E949C0586E492E09093E40480931F
:10201000E30480E090E0A8E8B1E48093E5049093C5
:10202000E604A093E704B093E8048DEC9CECACE4E8
:10203000BDE38093E9049093EA04A093EB04B0938A
:10204000EC0480E090E0A0E7B1E48093ED0490938D
:10205000EE04A093EF04B093F0041092F1041092F8
:10206000F2041092F3041092F4041092F50410920A
:10207000F6041092F7041092F8041092FA041092E9
:10208000F90410924B0510924C0510924D051092D8
:102090004E05109251058BE180934F058AE18093A4
:1020A000500561E08BE17CDB60E08091500578DBDE
:1020B00030E2C32E3EE4D32EE12CF12CC092520527
:1020C000D0925305E0925405F092550510925805B0
:1020D0008DE1809356058CE18093570561E08DE199
:1020E0005FDB60E0809157055BDBC0925905D092C1
:1020F0005A05E0925B05F0925C0510925D05109226
:102100005E0510925F0510926005109261051092B5
:10211000620510926305109264058EE492E090933C
:102120006605809365051092670510926805109208
:10213000690510926A0589E190E090936C0580939F
:102140006B0587E190E090936E0580936D0561E0EB
:1021500089E126DB61E080916D0522DB83E090E080
:102160009093B8048093B7041092BB041092BA0401
:102170001092BC048091AC048033A0F491E0980FDD
:102180009093AC048093AD0490E0FC01EE0FFF1F30
:102190008E0F9F1FFC01E45EFB4F88EB9BE0928358
:1021A000818303C08FEF8093AD0480E090E0A0EACC
:1021B000B1E48093700590937105A0937205B0937C
:1021C0007305FF90EF90DF90CF900895052E97FB59
:1021D00016F400940FD057FD05D01ED007FC02D096
:1021E00046F408C050954095309521953F4F4F4F8C
:1021F0005F4F089590958095709561957F4F8F4FB3
:102200009F4F08952BD0A59F900DB49F900DA49F34
:10221000800D911D11240895A1E21A2EAA1BBB1B4B
:10222000FD010DC0AA1FBB1FEE1FFF1FA217B307A2
:10223000E407F50720F0A21BB30BE40BF50B661FB8
:10224000771F881F991F1A9469F76095709580957C
:1022500090959B01AC01BD01CF010895A29FB001F3
:10226000B39FC001A39F700D811D1124911DB29FCA
:10227000700D811D1124911D08955058BB27AA2768
:102280000ED070C161D130F066D120F031F49F3FA3
:1022900011F41EF456C10EF4E095E7FB4CC1E92F92
:1022A00072D180F3BA17620773078407950718F095
:1022B00071F49EF58AC10EF4E0950B2EBA2FA02D75
:1022C0000B01B90190010C01CA01A0011124FF27E3
:1022D000591B99F0593F50F4503E68F11A16F040DE
:1022E000A22F232F342F4427585FF3CF46953795DD
:1022F0002795A795F0405395C9F77EF41F16BA0BA2
:10230000620B730B840BBAF09150A1F0FF0FBB1F4F
:10231000661F771F881FC2F70EC0BA0F621F731F98
:10232000841F48F4879577956795B795F7959E3FF5
:1023300008F0B3CF9395880F08F09927EE0F979583
:1023400087950895D4D008F481E008950CD00AC18F
:1023500002D140F0F9D030F021F45F3F19F0EBC02A
:10236000511134C1EEC00FD198F39923C9F355230D
:10237000B1F3951B550BBB27AA2762177307840778
:1023800038F09F5F5F4F220F331F441FAA1FA9F32E
:1023900033D00E2E3AF0E0E830D091505040E69520
:1023A000001CCAF729D0FE2F27D0660F771F881F81
:1023B000BB1F261737074807AB07B0E809F0BB0B70
:1023C000802DBF01FF2793585F4F2AF09E3F510594
:1023D00068F0B1C0FBC05F3FECF3983EDCF386953C
:1023E00077956795B795F7959F5FC9F7880F911D0A
:1023F0009695879597F90895E1E0660F771F881FF6
:10240000BB1F621773078407BA0720F0621B730BA8
:10241000840BBA0BEE1F88F7E0950895BCD088F0C6
:102420009F5790F0B92F9927B751A0F0D1F0660FC0
:10243000771F881F991F1AF0BA95C9F712C0B130DB
:1024400081F0C3D0B1E00895C0C0672F782F8827EE
:10245000B85F39F0B93FCCF3869577956795B3951A
:10246000D9F73EF490958095709561957F4F8F4F89
:102470009F4F0895E89409C097FB3EF4909580958E
:10248000709561957F4F8F4F9F4F9923A9F0F92F3A
:1024900096E9BB279395F695879577956795B795B8
:1024A000F111F8CFFAF4BB0F11F460FF1BC06F5F9E
:1024B0007F4F8F4F9F4F16C0882311F096E911C0B0
:1024C000772321F09EE8872F762F05C0662371F0D1
:1024D00096E8862F70E060E02AF09A95660F771FE5
:1024E000881FDAF7880F9695879597F90895990FC1
:1024F0000008550FAA0BE0E8FEEF16161706E807CE
:10250000F907C0F012161306E407F50798F0621BEE
:10251000730B840B950B39F40A2661F0232B242BC3
:10252000252B21F408950A2609F4A140A6958FEFE2
:10253000811D811D089597F99F6780E870E060E034
:1025400008959FEF80EC089500240A94161617064C
:1025500018060906089500240A9412161306140694
:1025600005060895092E0394000C11F4882352F0F7
:10257000BB0F40F4BF2B11F460FF04C06F5F7F4FAF
:102580008F4F9F4F089557FD9058440F551F59F096
:102590005F3F71F04795880F97FB991F61F09F3F50
:1025A00079F087950895121613061406551FF2CF79
:1025B0004695F1DF08C0161617061806991FF1CFC9
:1025C00086957105610508940895E894BB276627F0
:1025D0007727CB0197F908958ADF08F48FEF0895E4
:1025E0000BD0C0CFB1DF28F0B6DF18F0952309F08B
:1025F000A2CFA7CF1124EACFC6DFA0F3959FD1F3D6
:10260000950F50E0551F629FF001729FBB27F00DA0
:10261000B11D639FAA27F00DB11DAA1F649F6627F5
:10262000B00DA11D661F829F2227B00DA11D621F44
:10263000739FB00DA11D621F839FA00D611D221FFE
:10264000749F3327A00D611D231F849F600D211DE2
:10265000822F762F6A2F11249F5750408AF0E1F085
:1026600088234AF0EE0FFF1FBB1F661F771F881FCE
:1026700091505040A9F79E3F510570F05CCFA6CF16
:102680005F3FECF3983EDCF3869577956795B795B9
:10269000F795E7959F5FC1F7FE2B880F911D9695E3
:1026A000879597F9089523DF880B990B0895DB012F
:1026B0008F939F93A7DDBF91AF91A29F800D911D36
:1026C000A39F900DB29F900D11240895991B79E05E
:1026D00004C0991F961708F0961B881F7A95C9F7B2
:1026E00080950895EE0FFF1F881F8BBF0790F6910E
:1026F000E02D1994CF93DF938230910510F482E09E
:1027000090E0E0917605F091770520E030E0C0E0C0
:10271000D0E0309711F14081518148175907C0F03E
:102720004817590761F482819381209719F09B83A0
:102730008A832BC0909377058093760526C0211558
:10274000310519F04217530718F49A01BE01DF0151
:10275000EF010280F381E02DDCCF2115310509F175
:10276000281B390B2430310590F412968D919C91E1
:1027700013976115710521F0FB019383828304C0D7
:102780009093770580937605FD01329644C0FD0154
:10279000E20FF31F81939193225031092D933C93C3
:1027A0003AC02091740530917505232B41F4209196
:1027B0001202309113023093750520937405209115
:1027C0001002309111022115310541F42DB73EB7A9
:1027D0004091140250911502241B350BE0917405B1
:1027E000F0917505E217F307A0F42E1B3F0B281795
:1027F000390778F0AC014E5F5F4F2417350748F07A
:102800004E0F5F1F5093750540937405819391930C
:1028100002C0E0E0F0E0CF01DF91CF9108950F9387
:102820001F93CF93DF93009709F48CC0FC0132977C
:10283000138212820091760510917705011511051A
:1028400081F420813181820F931F20917405309192
:1028500075052817390779F5F0937505E093740528
:1028600071C0D80140E050E0AE17BF0750F4129697
:102870002D913C911397AD012115310509F1D90135
:10288000F3CF9D01DA013383228360817181860F4A
:10289000971F8217930769F4EC0128813981260F6D
:1028A000371F2E5F3F4F318320838A819B81938323
:1028B0008283452B29F4F0937705E093760542C097
:1028C0001396FC93EE931297ED01499159919E0155
:1028D000240F351FE217F30771F480819181840F73
:1028E000951F029611969C938E93828193811396E5
:1028F0009C938E931297E0E0F0E0D80112968D91B0
:102900009C911397009719F0F8018C01F6CF8D91E7
:102910009C9198012E5F3F4F820F931F2091740569
:10292000309175052817390769F4309729F410920A
:1029300077051092760502C01382128210937505F6
:1029400000937405DF91CF911F910F91089581E05D
:1029500090E0F89400C011E0C5E1D1E000E005C0CE
:10296000802FFE01BFDE2196011DC631D10780E018
:082970000807B1F7F894FFCF4E
:10297800540654065406540654065406540654067F
:1029880000007805800000000000E7065506800674
:102998002D07B1068F06A30600000000D901AA0181
:1029A800750148016C0158014901000000009A05B1
:1029B800AB03000000009B05AF0300000000960574
:1029C800AD0300000000970598050D0A0066616ECA
:1029D800206F66660048656164696E672C20006E2A
:1029E800616E00696E66006F7666004661696C65A7
:1029F8006420746F206175746F64657465637420F6
:0C2A08006779726F2074797065210000FE
:00000001FF
